:100000000C947F020C94C6020C94C6020C9411242A
:100010000C94C6020C94C6020C94C6020C94C60240
:100020000C94C6020C94C6020C94221F0C945E1E03
:100030000C94B5160C94C6020C94C6020C94C6021D
:100040000C94C6020C94C6020C94C6020C94C60210
:100050000C94C6020C9430160C94C6020C94C60282
:100060000C94C6020C94C6020C94C6020C94C602F0
:100070000C94C6020C94C6020C94C6020C94C602E0
:100080000C94C6020C94C6020C94C6020C94C602D0
:100090000C94C6020C94C6020C94C6020C94C602C0
:1000A0000C94C6020C94C6020C94C602EE0DEE0D22
:1000B000280E280E7B0E970E29102910A20E800FF5
:1000C000910F910F5F0D741079107E1083108810BE
:1000D0008D10921097109C10A110A810800D800D0B
:1000E000800D800D800D800D800D800D2F182F1834
:1000F0004218421838184218421842182F182F1860
:100100003D18421842183D18791CA01C361EA01C30
:10011000361EE81C0B1D361EFA1D0D1E00010101C6
:1001200001010101010102020202020202020203B4
:100130000303030303030304040404040404050584
:100140000505050606060606070707070708080847
:1001500008090909090A0A0A0B0B0B0C0C0C0D0DF6
:100160000D0E0E0E0F0F0F1010111111121213138E
:100170001414151516161717181819191A1A1B1B07
:100180001C1D1D1E1E1F2020212222232424252663
:1001900026272829292A2B2C2D2D2E2F303132329B
:1001A000333435363738393A3B3C3D3E3F404142A7
:1001B000434445464748494A4C4D4E4F505153548D
:1001C000555658595A5B5D5E5F6162646566686941
:1001D0006B6C6D6F7072737577787A7B7D7E8082C1
:1001E000838587888A8C8E8F91939596989A9C9E0A
:1001F000A0A2A3A5A7A9ABADAFB1B3B5B7BABCBE1A
:10020000C0C2C4C6C9CBCDCFD1D4D6D8DBDDDFE2E6
:10021000E4E7E9EBEEF0F3F5F8FAFDFF00AF0000DC
:1002200000001700150008001A00140029680000DB
:1002300000000A0009000700160004002B0000005F
:1002400000000500190006001B001D00E000284208
:100250002C00E200E30000000000000000000000AD
:1002600000001C0018000C00120013002F000000FA
:1002700000000B000D000E000F0033003400E20000
:10028000E000110010003600370032002D024C61F2
:100290002A62E600E3000000000000000000000009
:1002A000000000000000000000000000010000004D
:1002B00000000000E100E000E200E30001000000B7
:1002C00000000000E6000000000000000100000047
:1002D000000000000000000000000000000000001E
:1002E00000003A003B003C003D003E003F000000A3
:1002F00000004A005000510052004F004D00000025
:10030000000040004100420043004400450000005E
:1003100000000000000000000000000000000000DD
:1003200000003F003E003D003C003B003A00000062
:10033000000023002200210020001F001E000100F9
:100340000100A900AA00320030006400350001005D
:10035000010001000100000000000000000000009A
:1003600000004000410042004300440045000000FE
:10037000000024002500260027002D002E0001008B
:100380000100AE005000510052004F003800010043
:10039000010001000100000000000000000000DA80
:1003A0000281FFD9F1DB20A4A62EAF00A0C000A1DE
:1003B000C800AED580A81FD300408D14200000AE29
:1003C00005010902A10185020901A1000509190120
:1003D00029081500250195087501810205010930DC
:1003E00009311581257F9502750881060938158127
:1003F000257F950175088106050C0A3802158125AF
:100400007F950175088106C0C005010980A101859D
:100410000319012AB700150126B70095017510814F
:1004200000C0050C0901A101850419012AA00215CB
:100430000126A002950175108100C005010906A1E1
:1004400001050719E029E7150025019508750181C7
:10045000029501750881010507190029FF1500267D
:10046000FF00950675088100050819012905950505
:1004700075019102950175039101C009023B0002CB
:100480000100A0FA09040000010301010009211183
:100490000100012240000705810308000A09040148
:1004A000000103000000092111010001227B000767
:1004B00005820320000A1201100100000008EDFE71
:1004C00000000100010200011E034B0079007200D0
:1004D0006900610020004B006500790062006F0038
:1004E00061007200640000001003730070006C0073
:1004F000690074006B006200000004030904112409
:100500001FBECFEFDAE0DEBFCDBF04B603FE27C0CB
:100510008091E3049091E404A091E504B091E60495
:100520008730904BA740B04BD1F41092E304109267
:10053000E4041092E5041092E60414BE84B7877FA9
:1005400084BF0FB6F894A89580916000886180936D
:100550006000109260000FBEE0E0F8E3099511E042
:10056000A0E0B1E0E8E3FBE402C005900D92A638FC
:10057000B107D9F724E0A6E8B1E001C01D92A33E7F
:10058000B207E1F70E94C8100C949A250C94000061
:100590009091E30192FF0DC0282F2871283019F4A3
:1005A000877F846006C0282F2471243011F48B7F4C
:1005B000886093FF0DC0282F2871283119F4877E99
:1005C000846106C0282F2471243111F48B7E886148
:1005D0002091E40120FF0DC0382F3871383019F414
:1005E000877F816006C0382F3171313011F48E7FE2
:1005F000886021FF0DC0282F2871283119F4877ECB
:10060000816106C0282F2171213111F48E7E88610D
:1006100094FD877E08951F93CF93DF93CDB7DEB708
:1006200067970FB6F894DEBF0FBECDBF342F4B8B4C
:10063000252F5C8B6D8B7E8B8F8B4E895F89611133
:100640001092AB0486E0FE013D96DF01982F1D92CB
:100650009A95E9F73D872E876F87598B488BDE0186
:10066000179601900D928A95E1F7CE0107960E94A8
:10067000861981113EC086E0FE013796DE01119693
:1006800001900D928A95E1F7FF81E8856A857B8567
:100690006115710531F0EF3F31F481E0FF3F19F44E
:1006A00003C081E001C080E080FD23C020914F04A1
:1006B00030E0C9010196877099274091800450E08D
:1006C0008417950779F1F983EA837D836C8396E03B
:1006D000929FD001939FB00D1124A05BBB4FFE01F0
:1006E000319601900D929A95E1F780934F040E9404
:1006F000101916E08091800490914F048917F9F049
:10070000189FC0011124805B9B4F0E94861988238B
:10071000B1F08091800490E00196877099278093D2
:100720008004E8CF0E94351B10924F041092800481
:10073000E9E4F4E086E0DF011D928A95E9F7679627
:100740000FB6F894DEBF0FBECDBFDF91CF911F91E2
:1007500008950C9465162091CD013091CE01281793
:10076000390771F09093CE018093CD01E091EF01B4
:10077000F091F001309721F00084F185E02D09948B
:1007800008952091CB013091CC012817390771F0E1
:100790009093CC018093CB01E091EF01F091F001B7
:1007A000309721F00680F781E02D09940895E091BB
:1007B000EF01F091F001309721F00190F081E02DF0
:1007C000099480E00895809129048823F9F00E941B
:1007D0006516DC01CB01805A9541AF4FBF4F809326
:1007E000240490932504A0932604B09327048091B9
:1007F000280481110BC062E070E08CE192E00E945D
:10080000401B892B19F481E08093280480912804EF
:100810000895E091EE01F0E0E650FE4FDC018C918E
:100820009081891B282F90E0121634F4215090817A
:100830009F5F908391E0F8CF282F87FD20E0821BF7
:10084000882331F08F5F90819150908391E0F8CFB1
:1008500091110C94A9030895E091FD01F0E0E65098
:10086000FE4F2081FC0120830895882311F0FA01B6
:1008700001C0FB01099425E0E8EEF1E0DC01019004
:100880000D922A95E1F72091E5013091E601409122
:10089000E701FC0125833683478308951092E70121
:1008A00008958091E7010895309101018091E80158
:1008B00080FF16C0E091000163E0E69FF001112483
:1008C000E357FE4F539A8BB1877F9BB198602FB748
:1008D000F894AF0163E0369F400D511D112414C000
:1008E0008091020190910301891720F7E82FF0E031
:1008F000AF01440F551FE40FF51FE357FE4F118260
:10090000108212828F5FF0CFE417F50789F03191E2
:1009100068E09BB9000000C037FF8BB9330F0000BF
:1009200000C000C000C08BB900C06A9591F7ECCF41
:100930002FBF8FE594E00197F1F700C00000089504
:100940008091E801982F9695913021F08170826016
:100950008093E8010895CF92DF92EF92FF926B01AE
:100960007C010E94A004B701A60188E090E0FF90FE
:10097000EF90DF90CF900C944A259F92AF92BF9258
:10098000CF92DF92EF92FF920F931F93CF93DF935B
:100990009091E80190FFD3C0922E142FC62FD82F2C
:1009A000E92FE695F0E0E65DFE4F80818093E5015A
:1009B0009E7F923009F095C0E42FF0E0611106C0EF
:1009C000E45EFE4FE491FE2F2E2F72C0E62EF12C36
:1009D000E45EFE4FF4910F2FCF2ED12C26E0D29F54
:1009E000C00111242FEF30E0B9010E946C254BEAC1
:1009F0004603C001479F900D11248D0F911D8D0F4F
:100A0000911DB82EBB0CB80EA9014E195F094C9D63
:100A1000C0014D9D900D5C9D900D1124E92FCB9D43
:100A2000A0011124452F5527D901A41BB50BAC9D5E
:100A3000A001AD9D500DBC9D500D1124D901AB19E5
:100A4000B1095D01AE9CD001AF9CB00DBE9CB00D54
:100A50001124AB2FBB272A1B3B0B2C9DD0012D9DB6
:100A6000B00D3C9DB00D11242B2F6230710591F01B
:100A700048F461157105E1F061307105B9F42F2F6B
:100A8000F52F16C06430710569F040F066307105CD
:100A900079F00CC02F2FF92FEB2F0AC0F92FE02F80
:100AA000252F06C0292FEF2FFB2F02C0292FE52F5E
:100AB0008091020190910301891788F4A82FB0E07A
:100AC000AD01440F551FA40FB51FA357BE4F11967C
:100AD000FC9311972C931296EC938F5FEDCF0E94AD
:100AE00054048091E901D81308C08091EA01C81329
:100AF00004C08091EB01181729F08091E701826012
:100B00008093E701D093E901C093EA011093EB01D0
:100B10009920A9F06091E8017091E9018091EA01C2
:100B20009091EB01DF91CF911F910F91FF90EF908A
:100B3000DF90CF90BF90AF909F900C94AB04DF916B
:100B4000CF911F910F91FF90EF90DF90CF90BF90CA
:100B5000AF909F900895E8EEF1E0438121E1421BC0
:100B600008F440E021E0628181810C94BD04E8EE4C
:100B7000F1E0438121E1420F08F44FEF21E062816F
:100B800081810C94BD04E8EEF1E0628121E1621BF9
:100B900008F460E021E0438181810C94BD04E8EE1B
:100BA000F1E0628121E1620F08F46FEF21E04381FF
:100BB00081810C94BD04E8EEF1E0818121E0438164
:100BC000628188500C94BD04E8EEF1E0818121E05F
:100BD00043816281885F0C94BD048091EC0188237D
:100BE00019F081508093EC016091E8017091E90166
:100BF0008091EA019091EB010C94AB048091EC019F
:100C0000833018F48F5F8093EC016091E80170915C
:100C1000E9018091EA019091EB010C94AB04809181
:100C2000E80180FF1EC0817082608093E80180919E
:100C3000E70181608093E701662351F06091E8014C
:100C40007091E9018091EA019091EB010E94AB045F
:100C500020E04091EB016091EA018091E9010C9460
:100C6000BD0408951F93CF93DF93EC01162F8F815E
:100C700080FF20C098818091E80190FF08C08160CA
:100C80008093E801888186950E940F0613C08E7FAD
:100C90008093E8018091E70181608093E7012FEF65
:100CA00080E792E0215080409040E1F700C00000D2
:100CB0000E9454048F8181FF09C0212F4B816A81DA
:100CC0008981DF91CF911F910C94BD04DF91CF9169
:100CD0001F9108958091E8018695815009F481E083
:100CE00061E00C940F0661E081E00C940F06E8EEE1
:100CF000F1E083E0808311828FEF8283838314820B
:100D0000A5EEB1E012968C911297836012968C93A7
:100D100060817181828193810C94AB048D3E39F4A2
:100D20009091330497FF35C01092330459C08E3E22
:100D300029F4909133041916BCF32BC0909132041E
:100D40008F3E29F497FF25C01092320449C0803F9E
:100D500019F41916CCF31DC090913404893F29F47D
:100D60001916BCF4109234043BC08A3F19F497FF63
:100D700010C0F8CF8B3F39F49091350497FF09C02C
:100D8000109235042DC08C3F21F490913504191632
:100D9000BCF39FE0980F983080F421E030E0A90187
:100DA00002C0440F551F9A95E2F7CA0180959091B1
:100DB000310489238093310413C08D3F21F4809145
:100DC00048048E7F0BC08E3F21F4809148048D7FB4
:100DD00005C08F3F29F4809148048B7F809348049D
:100DE00080913204811106C080913304811102C0C8
:100DF00010922D0480913404811106C08091350435
:100E0000811102C010922A0408958091480480FD47
:100E100016C081FD16C082FD18C080912A04882367
:100E200091F0883290F428E0829FC001112468E29A
:100E300070E00E948025862F672B29F007C082E092
:100E4000089584E0089581E0089588E008958091F0
:100E5000480480FD14C081FD14C082FD16C080913D
:100E60002D04882381F0843180F422E3829FC00125
:100E7000112464E170E00E948025862F08958CE0A3
:100E8000089589E1089585E0089582E308958D3EEF
:100E900021F40E942707819504C08E3E29F40E9408
:100EA00027078093330408958F3E21F40E9427077B
:100EB000819504C0803F29F40E9427078093320463
:100EC0000895893F19F40E94050705C08A3F31F44F
:100ED0000E94050781958093340408958B3F21F487
:100EE0000E940507819504C08C3F29F40E940507E4
:100EF0008093350408959FE0980F983078F421E0AE
:100F000030E0A90102C0440F551F9A95E2F7CA01CB
:100F100090913104892B8093310408958D3F21F401
:100F20008091480481600BC08E3F21F48091480479
:100F3000826005C08F3F29F48091480484608093CB
:100F40004804089580918C01811112C08091D800CD
:100F500080618093D8008AE18A95F1F700C0809182
:100F6000D90080FD02C082E001C081E080938C0145
:100F700081E090918C01913009F080E00895F8941F
:100F8000E82FE295EF70F0E031A1282F2F7081E07B
:100F900090E001C0880F2A95EAF7982F9095932347
:100FA00091A392A1892B82A378940895CF93DF9384
:100FB000E72FF0E028E0829FE00DF11D1124B3E05F
:100FC000EE0FFF1FBA95E1F7E60FF11DEE0FFF1FC1
:100FD000E25EFD4FC591D491CE01C238D10569F1D1
:100FE000B0F4C133D10509F475C048F4C932D10554
:100FF00009F469C0CA32D10509F473C085C0C5338C
:10100000D10509F459C0C933D105B9F07DC0C33E3B
:10101000D10571F138F4C03ED105B1F0C23ED10521
:1010200011F172C0C63ED105B9F1C73ED105C9F173
:10103000C43ED10509F068C024C02091E30120FD21
:101040005DC021FD5BC060C02091E30120FD50C068
:101050002091E40120FF51C18091E30184FD4BC147
:1010600083EE90E04AC12091E30122FF46C1F4CF14
:101070008091E30182FD3FC08091E40180FD3EC08C
:10108000EBCF2091E40121FF38C18091E30184FD81
:1010900032C187EE90E031C12091E30123FF2DC1E1
:1010A000F4CF8091E30183FD2CC08091E40181FFA6
:1010B000ECCF84EE90E021C12091E30125FF1DC11A
:1010C00089E290E01AC12091E30125FF16C185E372
:1010D00090E013C12091E30126FF0FC18AE290E066
:1010E0000CC12091E30126FF08C181E390E005C116
:1010F00089E390E002C182EE90E0FFC080EE90E0D4
:10110000FCC086EE90E0F9C0C11551E5D50708F0A6
:101110006CC0C11520E5D207F0F0CE01F4E0969541
:101120008795FA95E1F7282F23703C2F337081E0E3
:1011300090E002C0880F991F3A95E2F79C68922BC5
:101140002C2F2F702695269540E2249F9001112484
:10115000822B932BD2C0C83ED10570F5C03ED1057D
:1011600008F0CBC0C83AD105B8F4C53AD10550F063
:101170002C2F255AC22FD0E0CC5ADE4F888190E028
:101180009064BBC0C130D10509F4B7C008F4B3C046
:10119000249708F4B0C0B1C0CF3BD10508F0ABC074
:1011A0002C2F285AC22FD0E0CC0FDD1FC95ADE4F9A
:1011B000888199819464A1C0C11540E2D40760F48C
:1011C000C11551E0D50708F098C0CD3ED10508F40F
:1011D00092C0CE01906591C0C11580E4D80708F493
:1011E0008AC0CE019F70906A88C0C11595E5D90765
:1011F00008F040C0C11524E5D20728F09C2F8827AD
:10120000846F906A7AC0C11543E5D407A8F09E01A7
:101210002370332781E090E002C0880F991F2A9540
:10122000E2F72C2F2695269540E2249F9001112469
:10123000822B932B9A6861C0C11552E5D50728F41B
:101240009C2F8827816F906A58C09E012370332796
:1012500081E090E002C0880F991F2A95E2F72C2FB9
:101260002695269550E2259F90011124822B932BE1
:101270009C6843C0C11589E5D807B0F4C11598E54D
:10128000D90728F09C2F8827806F906A36C0C11537
:1012900026E5D20780F58C2F0E94C8028F7190E05E
:1012A000982F8827906229C0C1154AE5D40790F489
:1012B0008C2F8F700E94C8029E0194E0369527956E
:1012C0009A95E1F72F7030E0322F22273069A9017B
:1012D000482B0FC0CE0190568115904260F48D2F9F
:1012E0008F710E94C8029E01332730628F71A9015D
:1012F000582BCA0102C080E090E0DF91CF910895A1
:10130000EF92FF920F93CF93DF93C42FD22FFC0164
:1013100082818823D1F04093CF010E94A916909337
:10132000CA018093C90180E28C0F883008F06DC03B
:10133000C77081E001C0880FCA95EAF7DF91CF91AD
:101340000F91FF90EF900C9402208091CF014813F1
:101350004BC08091C9019091CA010E945616883CE9
:10136000910508F041C0CD17C9F080E28C0F88309C
:1013700040F4C77081E001C0880FCA95EAF70E9467
:10138000F71F80E28D0F883048F481E09D2F977021
:1013900001C0880F9A95EAF70E940220093319F0DC
:1013A000E12CF12C03C080E5E82EF12C802F0E9467
:1013B0007320E114F10451F08FE99FE00197F1F7F8
:1013C00000C0000091E0E91AF108F3CF802F0E94DD
:1013D0000C2080E28D0F8830C0F4D77081E001C00E
:1013E000880FDA95EAF70AC080E28C0F883068F43B
:1013F000C77081E001C0880FCA95EAF7DF91CF91ED
:101400000F91FF90EF900C94F71FDF91CF910F9108
:10141000FF90EF9008950E94A916209132042111A7
:1014200004C020913304222321F090932F04809351
:101430002E0420913404211104C02091350422236C
:1014400021F090932C0480932B04E091EF01F09114
:10145000F001309749F082E0809330040480F581F8
:10146000E02D80E394E0099408958F929F92AF92CB
:10147000BF92CF92DF92EF92FF920F931F93CF9381
:10148000DF9300D000D0CDB7DEB78CE2C82E81E06C
:10149000D82E95EDE92E91E0F92E470110E0AA240F
:1014A000A394B12CB601D6018C91F894E82FE29563
:1014B000EF70F0E021A18F70A50102C0440F551F0D
:1014C0008A95E2F7CA01922F982B91A392A1809559
:1014D000892382A3789400C0E4E3F1E020E030E0C7
:1014E00000E04191842F82958F7090E0DC0190960E
:1014F0008C9190E04F7002C0959587954A95E2F7E0
:1015000080FD07C08A2D022E01C0880F0A94EAF7D9
:1015100001C080E0082B2F5F3F4F2830310509F7CD
:10152000BFEFCB1ADB0AFB0180810E94BF07F0EA04
:10153000FA95F1F7D4018C91081719F00C9381E01A
:1015400001C080E0182BBFEF8B1A9B0AE0E3CE1698
:10155000E1E0DE0609F0A6CF0091DE01112349F09B
:1015600081E080938A010E94A9169093890180935B
:10157000880180918A018823B9F080918801909137
:1015800089010E945616069778F0E02FF0E0EE50A1
:10159000FE4FD7018D917D018193B9EDEB16B1E03E
:1015A000FB06B9F710928A010E94A2076091DE0142
:1015B0008823C9F119821A821B821C82862F90E02F
:1015C000BE016F5F7F4F8E509E4F0E94252281117A
:1015D00012C080918B018F5F80938B01863068F100
:1015E000E091DD01F0E0EE50FE4F10821182128298
:1015F000138281E023C010928B01E091DD01F0E0C5
:10160000EE50FE4FDE0111969E012B5F3F4F80E0B2
:101610009D914081491711F0908381E03196A21786
:10162000B307B1F70BC070E06E507E4F8091DD01C3
:1016300090E08E509E4F0E94572280E0112311F0BF
:1016400081E090E00F900F900F900F90DF91CF917D
:101650001F910F91FF90EF90DF90CF90BF90AF90D0
:101660009F908F9008958F929F92AF92BF92CF924A
:10167000DF92EF92FF920F931F93CF93DF93CDB73B
:10168000DEB72A970FB6F894DEBF0FBECDBFFC01C0
:10169000D080118183819481892B39F01F3F39F4E7
:1016A00091E00FEFD01203C003C091E001C090E0C1
:1016B00090FD53C57F0185E0DE01169601900D92E5
:1016C0008A95E1F7F70122818E819F81222349F0DB
:1016D0000E94D017082F682F8E819F810E94721858
:1016E00003C00E944618082FE12FF0E018E0019F88
:1016F000E00DF11D112443E0EE0FFF1F4A95E1F7C5
:10170000ED0DF11DEE0FFF1FE25EFD4F05911491EF
:10171000043F2CE5120759F190F4093D8CE51807B8
:10172000E9F00A3D9CE51907A1F1083DECE51E072B
:10173000B1F506E221EE41EE68ED7CE514C0063F0E
:10174000FCE51F0701F1C8F0073F3CE5130739F539
:1017500007E225EE46EE67EF7CE505C007E225EEE1
:1017600045EE69ED7CE5C7010E948009C9C106E22A
:1017700021EE40EE64EF7CE5F6CF07E225EE44EE85
:1017800065EF7CE5F0CF06E221EE42EE66EF7CE508
:10179000EACF08E221E045EE6AED7CE5E4CFF7010F
:1017A0009281992309F43FC11092CF010230FCE5E8
:1017B0001F0708F422C106312CE5120738F0980102
:1017C0002B5F3C452930310508F017C10E940517F1
:1017D0009093E4018093E30100313CE5130709F4A1
:1017E000C3C008F041C008309CE5190709F49AC04D
:1017F000F0F40430FCE51F0709F487C068F40230F8
:101800003CE5130709F477C003301C4509F0E5C037
:101810008091E301826076C006309CE5190709F4E7
:101820006EC008F07BC08091E30188606BC00C3013
:10183000FCE51F0709F485C068F40A303CE513078E
:1018400009F474C008F079C00E94351B8091E3014F
:10185000806858C00E309CE5190709F476C008F07E
:101860007FC08091E3018BC00C3FFCE51F0709F4AA
:101870004FC018F503313CE5130709F47DC078F437
:1018800001319CE5190709F473C002311C4509F0C8
:10189000A4C00E94351B8091E3018F7733C00531CE
:1018A000FCE51F0709F472C008F486C00B3F1C4515
:1018B00009F093C08091E4013EC001158DE5180741
:1018C00009F45FC058F40E3FECE51E0709F444C06C
:1018D00008F43FC08091E40182602DC002302DE504
:1018E000120709F475C008F45DC003301D4509F006
:1018F00074C060E06EC08091E301816003C080919C
:10190000E30180618093E30168C08091E30111C02D
:101910008091E40182608093E4015FC08091E301E3
:101920008062F0CF8091E3018064ECCF8091E3018D
:1019300088608460E7CF8160EECF8091E3018E7F85
:10194000E1CF8091E3018D7FDDCF8091E301877F3F
:10195000D9CF8091E40118C08091E4018D7FDBCF65
:101960008091E3018F7ECECF8091E3018F7DCACF3E
:101970008091E3018F7BC6CF8091E301877F8B7FCE
:10198000C1CF8091E4018D7F8E7FC5CF8091E3012F
:1019900082FB222720F991E0922790FB82F990FBAD
:1019A00083F9B0CF8091E401982F909591708E7F4C
:1019B000892B90FB81F9AFCF0E94351B8091E30109
:1019C00087FB222720F991E0922790FB87F99ACF95
:1019D00061E08EE090E00E9438256091E301109173
:1019E000E40184E090E00E943825612F81E290E0DC
:1019F0000E9438250E94351B83C006312CE5120752
:101A000021F58091AC048A7A91E009F490E09093FA
:101A1000D001882311F065E301C069E280E494E01D
:101A20000E94EB160FC00631FCE51F0709F087C0C6
:101A30008091D001882309F44BC365E380E494E0EE
:101A40000E94DE160E9486175BC001152CE5120766
:101A500039F00F3D1C4509F07CC00E94161750C09C
:101A60000E94351B8FEF94E3ECE081509040E04002
:101A7000E1F700C0000081E08093E00080E2809305
:101A8000D8001092C9008FE19EE40197F1F700C0E1
:101A9000000087E090EBDC018093E3049093E40482
:101AA000A093E504B093E6049CE088E10FB6F894B7
:101AB000A895809360000FBE90936000FFCF809147
:101AC000E80180FF0BC38E7F8093E8016091E801FD
:101AD0007091E9018091EA019091EB010E94AB04C1
:101AE0008091E70181608093E7019FEFE0E7F2E0FA
:101AF0009150E040F040E1F700C000000E94540423
:101B00008091A904877009F428C3F7018281882392
:101B100009F423C382E02A960FB6F894DEBF0FBE05
:101B2000CDBFDF91CF911F910F91FF90EF90DF908C
:101B3000CF90BF90AF909F908F900C94CC188091D5
:101B4000AC048272F801E35CFC45E431F10508F471
:101B5000C1C2F70100811181992349F0C8010E9497
:101B6000D017D82E682FC8010E94721804C0C8016F
:101B70000E944618D82EB8018D2D0E94D6078C01E0
:101B8000982EF701D280A580A2943FE0A3228091F5
:101B9000A904877099F0DD2089F0812F807F80343F
:101BA00021F080E2800F883048F082E00E94CC185B
:101BB0008091A9048770CC24C3948111C12CB12ECB
:101BC000B2942FE0B2228B2D90E08C30910508F07A
:101BD00040C2FC01EA5AFF4F0C949425812F807F6C
:101BE0001F70882311F01295107FDD20B9F01123AA
:101BF00009F41AC280E2800F883010F0911006C0FC
:101C00008091AC04182B1093AC0405C08091AB04F8
:101C1000182B1093AB040E94861706C2802F0E94D7
:101C20000C20112309F415C2005E1095083010F045
:101C3000911006C08091AC0418231093AC0405C029
:101C40008091AB0418231093AB040E94861701C245
:101C5000812F807F1F70803211F01295107F9920A4
:101C600021F0F1E09F16E1F02AC0DD2081F08091A3
:101C7000AD04AA2051F001E0A01207C0182B1817DC
:101C800009F4E7C11093AD04E4C1812B10C0AA2070
:101C900021F021E0A21609F4DCC10E94801727C0C0
:101CA000DD2041F035E03A1508F4D3C1812F0E94C0
:101CB0000220CFC184E08A1508F4CBC118C0DD2012
:101CC00049F0AA2099F3F701858180FFADC18F709B
:101CD0008583ECCFAA2059F0093309F0B7C1FFEF93
:101CE00017EE23E0F15010402040E1F7ADC1812F05
:101CF0000E94F71FAEC1812F86958695837019F0DB
:101D0000813059F0A6C1DD2019F0C801937002C0DE
:101D100080E090E00E94C103A2C1DD2019F0C8015B
:101D2000937002C080E090E00E94AB0398C1802FC6
:101D3000DD2019F00E94470702C00E948E060E9413
:101D40000B0A8DC1812F837009F069C0D11085C144
:101D5000902F929596959770990F990F802F8F706D
:101D6000882E912CA12CB12C092E04C0880C991C12
:101D7000AA1CBB1C0A94D2F704FF12C04FE050E02B
:101D800060E070E004C0440F551F661F771F9A95EE
:101D9000D2F7DB01CA0180959095A095B09503C05C
:101DA00080E090E0DC0116951695412F437042309B
:101DB00019F1C8F40091AE041091AF042091B00461
:101DC0003091B104413059F088299929AA29BB29B9
:101DD000BC01CD0160237123822393230AC0802A92
:101DE000912AA22AB32ABC01CD01682979298A291E
:101DF0009B290E94061931C188299929AA29BB2942
:101E00000091AE041091AF042091B0043091B10460
:101E1000BC01CD016027712782279327EACFDD20FF
:101E200019F0812F817001C08695882309F415C1AE
:101E3000902F929596959770990F990F802F8F708C
:101E4000882E912CA12CB12C092E04C0880C991C31
:101E5000AA1CBB1C0A94D2F704FF12C04FE050E04A
:101E600060E070E004C0440F551F661F771F9A950D
:101E7000D2F7DB01CA0180959095A095B09503C07B
:101E800080E090E0DC0116951695412F43704230BA
:101E9000D9F068F50091DF011091E0012091E10196
:101EA0003091E201413059F088299929AA29BB29AA
:101EB000BC01CD0160237123822393231EC0802A9D
:101EC000912AA22AB32A13C088299929AA29BB29B1
:101ED0000091DF011091E0012091E1013091E201D8
:101EE000BC01CD01602771278227932706C0BC0162
:101EF000CD01682979298A299B290E949D18ADC0A6
:101F00001F70DD2039F0812F0E94E518802F0E947C
:101F10000220A3C0802F0E94F71F812F0E94A718C4
:101F20009CC0802F32EF931609F440C0391538F069
:101F300090EF991661F0E1EF9E1699F170C0F3EF02
:101F40009F16D9F124EF921609F44EC068C0DD2027
:101F500019F134E03A1508F47CC01F7181E090E07B
:101F6000A0E0B0E0AC01BD0104C0440F551F661FE6
:101F7000771F1A95D2F78091DF019091E001A0912F
:101F8000E101B091E2018A019B01082719272A2764
:101F90003B27C901B80125C025E02A1508F459C01E
:101FA000DCCFDD2029F0812F8F712CC0DD20D9F30B
:101FB000812F8F710E94A7184CC0DD2079F01F710E
:101FC00081E090E0A0E0B0E0BC01CD0104C0660F6C
:101FD000771F881F991F1A95D2F703C060E070E041
:101FE000CB010E949D1835C0DD2079F01F71812F33
:101FF0000E94E51838E0139FC0011124836080938C
:10200000A904812F0E94E51824C081E00E94CC1809
:1020100081E08A15F0F482E00E94CC181AC0DD201D
:1020200039F0AA2009F4BFCF802F0E94732011C07D
:10203000AA2009F4BDCF893349F49FEFE7EEF3E01E
:102040009150E040F040E1F700C00000802F0E9476
:102050000C2088EF8B0D843010F40E94D703CC2025
:10206000A9F08091A90480FD11C0F7011282859525
:10207000859585950E94E518C7010E94330B8091D4
:10208000A9048595859585950E94A71885E0F70197
:10209000DE01119601900D928A95E1F789819A816E
:1020A0000E944618EA81F0E008E0809FE00DF11DF3
:1020B000112483E0EE0FFF1F8A95E1F78981E80F75
:1020C000F11DEE0FFF1FE25EFD4F8591949145C01B
:1020D00069E2B4CCEE59FF4F0C9494258160809353
:1020E000E80161E0869536C04AE656E063E776E0AF
:1020F0002CC043E756E06AE676E027C04BED55E09A
:1021000064EE75E022C044EE55E06BED75E01DC055
:1021100043EC55E06FEC75E018C04FEC55E063EC14
:1021200075E013C04BEA55E067EB75E00EC047EB76
:1021300055E06BEA75E009C04DEE55E06EEF75E0D5
:1021400004C04EEF55E06DEE75E00E943504D8CC2A
:1021500061E081E00E940F06D3CC2A960FB6F89476
:10216000DEBF0FBECDBFDF91CF911F910F91FF90CA
:10217000EF90DF90CF90BF90AF909F908F90089599
:10218000BC0184E00C94FD15BC0183E00C94FD15AA
:10219000CF93DF93CDB7DEB762970FB6F894DEBF6B
:1021A0000FBECDBF84B7877F84BF0FB6F894A895C4
:1021B00080916000886180936000109260000FBE83
:1021C00090E080E80FB6F8948093610090936100EE
:1021D0000FBE85B7806885BF85B7806885BF80EBF7
:1021E00095E190938701809386010E94A21E0E9430
:1021F000C11E8091E20084608093E2007894809117
:10220000C3048823A1F01091E9001F709091EC00A5
:10221000892F817090FD80E8182B1092E900809141
:10222000E80083FD0E94951B1F701093E90082E077
:1022300084BD93E095BD9AEF97BD80936E00109298
:10224000D1011092D2011092D3011092D4010E94B8
:10225000A2078093050180910501882321F0109247
:1022600000018AE003C08AE08093000180930101AD
:102270000E94A20781110E94FC218091050180919A
:102280000501811102C094E001C090E09093DE014D
:1022900084E0891B8093DD0184E30E94BF0786EC04
:1022A0000E94BF0787E90E94BF0784E90E94BF0719
:1022B00004E311E0ACE3EA2EA1E0FA2ED8018D91FF
:1022C0008D010E94BF07E016F106C1F7E5EDF1E0D0
:1022D0008DED91E0A2EFB1E011921D928E179F0754
:1022E000D9F780E090E00E9432258B3E9E4F11F09E
:1022F0000E9416170E94A207811102C00E940222AA
:102300001092200480E88093FF010E947A226DE001
:1023100070E081EB93E00E94401B892B09F03FC0E5
:102320008091200463E070E081FD36C08EEA93E086
:102330000E94401B892B99F56DE070E08EE993E0D7
:102340000E94401B892B59F50E946516DC01CB01C8
:10235000805A9541AF4FBF4F80932404909325043A
:10236000A0932604B093270480E092E0E0E2F2E03C
:10237000DF019C011D9221503040E1F78FEF9FEF6C
:10238000909323048093220481E080932904809316
:1023900028041092210403C08BEA93E0C9CF80E0A7
:1023A00090E00E9432258B3E9E4F11F00E9416173E
:1023B00082E090E00E942425809337040E94051754
:1023C0009093E4018093E30183E090E00E94242550
:1023D000682F70E080E090E00E9406198091ED0186
:1023E000811139C080E090E00E9432258B3E9E4FE3
:1023F00021F00E9416170E94770688E090E00E9464
:102400002C256093E8017093E9018093EA01909391
:10241000EB018091E70183608093E7016E7F71F4A7
:102420000E94770688E090E00E942C256093E801E6
:102430007093E9018093EA019093EB010E94A0045C
:102440008091E80180FF04C060E086950E940F063D
:1024500081E08093ED0180910501811106C085E343
:102460008093070186E68093060120910701E22F01
:10247000E295EF70F0E031A12F7081E090E0AC01C7
:10248000022E01C0440F0A94EAF7542F50953523C9
:1024900031A332A1432B42A340910601A42FA29560
:1024A000AF70B0E091963C9191974F70042E01C0AF
:1024B000880F0A94EAF7982F9095932391969C930E
:1024C000919792969C919297892B92968C93929742
:1024D00080A190E002C0959587952A95E2F78170DA
:1024E00090962C9130E002C0359527954A95E2F7F9
:1024F00020FD02C090E001C092E0892B8093FE0194
:102500009091050181E098279093FD01891B8093AC
:10251000EE018FE091E09093F0018093EF01E0E411
:102520006E2E22242394312C8091C304853009F02F
:1025300044C000E112E18091C304853009F039C044
:102540008091C304843019F11092F10188E190E088
:102550000FB6F894A895809360000FBE609260005B
:1025600083B7817F846083BF83B7816083BF7894A2
:10257000889583B78E7F83BF0FB6F894A895809116
:102580006000886180936000109260000FBE8091AF
:10259000C204882309F4CFCF0E94350AE2EFF1E0AC
:1025A00081918111BAC2AAEFB1E0AE17BF07C1F79E
:1025B000C2CF0E94351B0E94D7030E94350AC82E45
:1025C00081110E946516A8E3B4E0E2EFF1E000E0BB
:1025D00010E0B02ED1908D918D2509F454C0E12CDE
:1025E000FF24F394982F9F2109F448C00E94A2076A
:1025F000882399F0EF82B886DF2081E009F480E03B
:1026000089870E94A9168160782F9B878A874F81CE
:10261000588569858B850E940B03F801E85CFB4FA8
:102620008081F826F082A091FE015A2F550F550F98
:1026300020910701E22FE295EF70F0E080A190E099
:102640002F7002C0959587952A95E2F7817099279A
:1026500040910601E42FE295EF70F0E020A130E018
:102660004F7002C0359527954A95E2F7D901A170C0
:10267000BB2720FF1FC0A2E0B0E01CC0E394FF0C0A
:1026800028E0E212AFCF0F5F1F4F0830110509F0AD
:10269000A0CF8FEF8C878D871E860E94A916816040
:1026A000782F988B8F874C855D856E8588890E94F1
:1026B0000B03B9CFA82BB92BA52BA093FE01E0915A
:1026C000FD01AF70B0E0A45CBE4F9C918091FC0115
:1026D000890F843044F00E2E000CFF0BE650FE4FA5
:1026E00090819F5F09C08D3F5CF40E2E000CFF0BA4
:1026F000E650FE4F908191509083DD24D39401C029
:10270000D12C082E000C990B64E070E00E9480250B
:102710008093FC01D1100E94A90380912904882391
:1027200009F407C1209122043091230421153105B9
:1027300009F4D8C0809121048111D4C0482E512CB5
:102740007101082E02C0EE0CFF1C0A94E2F7A901E9
:102750004E215F21452B11F48F5FF0CF9091200423
:10276000920175E0220F331F7A95E1F790FD12C0B8
:102770008295880F807680930A01220F232F221FD3
:10278000330B319520930D01815E80930B011092E4
:102790000E0112C055E0369527955A95E1F7220FA4
:1027A000220F220F20930A0110920D01295F20931E
:1027B0000B0183E080930E0124E630E047E050E017
:1027C00068E071E088E70E940723892B09F08AC03E
:1027D0008091200480FD23C0C20145E0880F991F2D
:1027E0004A95E1F7AC01405E5D4F04E610E020E25F
:1027F00030E060E488E70E942E23892B09F072C044
:102800000E94E303E094F0948091220490912304C9
:10281000E822F922F0922304E092220463C080E2CD
:10282000E0E0F2E0DF011D928A95E9F735E0440C23
:10283000551C3A95E1F7E0E5F1E0FA8BE98B6CE4A1
:1028400071E0A989BA898D91BA8BA98BFB0191910D
:10285000BF01A201490F511D405E5D4F90E08050C5
:102860009E4FFC0127E0A22E9F01281B390B822CD2
:1028700001C0880C2A95EAF78A01912CD801BD90F5
:102880008D01B8202A2D29192770722E022E000CD6
:10289000330BBB2D01C0BB0F7A94EAF77B2E319529
:1028A000219531092770332701C0B6942A95EAF79C
:1028B0007B28B0807B287082939428E09212DECF30
:1028C000AA9431963FEFA312CFCF89899A89845574
:1028D000914009F0B6CF04E610E020E230E040E09D
:1028E00052E087CF80912804882319F10E94651651
:1028F000009124041091250420912604309127048E
:10290000DC01CB01801B910BA20BB30B8F3F9F4FC0
:10291000AF4FBF4770F480912904882351F062E0E3
:1029200070E08EEB93E00E94401B892B11F4109213
:102930002804C11001C0D1100E94E30386E0E0E347
:10294000F4E0DE01119601900D928A95E1F7E09096
:102950003204F09033040091340410913504109245
:102960003204109233041092340410923504E110B2
:1029700003C0FF2009F451C080912E0490912F04D0
:102980000E9456169C0190912D04992309F4DBC0F6
:102990002333310508F441C09F3F19F09F5F9093A6
:1029A0002D04EE2061F00E9427071E1414F09FEF03
:1029B00001C091E0899F802D112480933204FF2073
:1029C00061F00E9427071F1414F09FEF01C091E0EF
:1029D000899F802D11248093330430913204332356
:1029E000E1F0209133042223C1F045EB3403C00110
:1029F0001124992319F09093320403C081E080934D
:102A0000320435EB2303C0011124992319F090936C
:102A1000330403C081E080933304011103C0112308
:102A200009F451C080912B0490912C040E945616F9
:102A30009C0190912A04992309F48AC02536310516
:102A400008F441C09F3F19F09F5F90932A04002330
:102A500061F00E940507101614F09FEF01C091E08D
:102A6000899F802D112480933404112361F00E94EA
:102A70000507111614F09FEF01C091E0899F802D8A
:102A8000112480933504309134043323E1F02091F4
:102A900035042223C1F045EB3403C00111249923EE
:102AA00019F09093340403C081E08093340435EB33
:102AB0002303C0011124992319F09093350403C016
:102AC00081E0809335048091320481110BC08091A4
:102AD0003304811107C080913404811103C08091B7
:102AE000350481110E940B0AEB82FC820D831E8348
:102AF00086E0FE013196A0E3B4E001900D928A9544
:102B0000E1F70E94D70390913604891709F40CCDA0
:102B10000E94D7038093360407CD09BD19BD09B4BF
:102B200000FEFDCF8091D8008F7D8093D8008091EA
:102B3000E00082608093E0008091E00081FDFCCFA6
:102B40000E94351BF8CC2D32314008F027CF65CFDD
:102B50002D32314008F078CFB6CF8091B804089577
:102B600080E0089522E02093E9002FEF3091E80003
:102B7000215035FD06C035ED3A95F1F700002111E1
:102B8000F5CF2091E80025FF0BC040E050E066E063
:102B900070E00E94691B8091E8008E778093E800C6
:102BA0000895CF93DF9321E02093E9002FEF309138
:102BB000E800215035FD06C035ED3A95F1F70000EB
:102BC0002111F5CF2091E80025FF14C0EC0140E071
:102BD00050E068E070E00E94691B8091E8008E7709
:102BE0008093E80088E0FE01A9EBB4E001900D922B
:102BF0008A95E1F7DF91CF910895CF93DF9300D0CD
:102C00001F92CDB7DEB79091C304943019F5898334
:102C10007B836A8382E08093E9008FEF9091E800E4
:102C2000815095FD06C095ED9A95F1F70000811150
:102C3000F5CF8091E80085FF0DC040E050E063E0F3
:102C400070E0CE0101960E94691B8091E8008E77AA
:102C50008093E8000F900F900F90DF91CF9108952F
:102C600078941F920F920FB60F9211248F939F9317
:102C7000AF93BF938091B2049091B304A091B40438
:102C8000B091B5040196A11DB11D8093B20490933B
:102C9000B304A093B404B093B504BF91AF919F91D6
:102CA0008F910F900FBE0F901F9018959C014FB7FA
:102CB000F8948091B2049091B304A091B404B091BF
:102CC000B5044FBF821B930B08952FB7F894609102
:102CD000B2047091B3048091B4049091B5042FBFF5
:102CE00008950F931F930E94A207882321F01F913C
:102CF0000F910C9465160E9465160091D1011091F8
:102D0000D2012091D3013091D401600F711F821F35
:102D1000931F1F910F910895CF92DF92EF92FF9230
:102D20006B017C010E94A20781110EC00E946516F2
:102D3000C61AD70AE80AF90AC092D101D092D20184
:102D4000E092D301F092D401FF90EF90DF90CF900A
:102D500008952FB7F8948091B2049091B304A09194
:102D6000B404B091B5042FBF08951F920F920FB60F
:102D70000F9211248F939F93AF93BF938091F10192
:102D8000811113C08091B2049091B304A091B40456
:102D9000B091B5044196A11DB11D8093B2049093EA
:102DA000B304A093B404B093B504BF91AF919F91C5
:102DB0008F910F900FBE0F901F9018959C012A5F66
:102DC0003F4FFC014281461301C0128201968217D7
:102DD0009307B9F708959C01FC0132969FEF80E0BC
:102DE0004191461789F09F3F19F4411101C0982F76
:102DF0008F5F8630A9F79F3F39F0F901E90FF11D88
:102E000097FDFA95628308950895CF9384E090E04A
:102E10000E942425C82F81E290E00E9424252C2FB7
:102E200030E0A901582BCA01CF9108956BEE7EEFD7
:102E300080E090E00E94562560E082E090E00E94F1
:102E4000382560E083E090E00E9438251092AE04BF
:102E50001092AF041092B0041092B10460E084E0CC
:102E600090E00E94382560E081E290E00E943825E1
:102E700060E085E090E00E94382560E086E090E028
:102E80000E9438256FEF87E090E00E94382540E0EF
:102E900050E0BA0188E090E00E944A2560E08DE0B1
:102EA00090E00E94382540E050E0BA0188E190E0CF
:102EB0000E944A2560E087E190E00E94382540E0CA
:102EC00050E0BA018CE190E00E944A2560E080E287
:102ED00090E00E94382540E050E0BA0188E190E09F
:102EE0000E944A2540E050E0BA018FE090E00E9445
:102EF0004A2540E050E0BA0183E190E00C944A2575
:102F00008091AD0481111092AD0408959091AC04AC
:102F10008091AB04892B2091AA04982F922B909337
:102F200040048091AD04882389F0892B809340046C
:102F3000E2E4F4E097E080E0915029F0219122232F
:102F4000D9F38F5FF9CF81110E948017E091EF01D3
:102F5000F091F001309731F00280F381E02D80E4B0
:102F600094E00994089580E090E00E94C10380E01D
:102F700090E00E94AB031092AB041092AA040E944E
:102F80008617E0E3F4E086E0DF011D928A95E9F719
:102F900010922D0410922A04109248040C940B0AEB
:102FA000BF92CF92DF92EF92FF920F931F93CF9336
:102FB000DF938C01C090DF01D090E001E090E1014F
:102FC000F090E2018091AE049091AF04A091B00422
:102FD000B091B104C82AD92AEA2AFB2ACFE1D0E06D
:102FE000D701C6010C2E04C0B695A7959795879575
:102FF0000A94D2F780FD04C0219790F7B12C07C046
:10300000BC2EB8018C2F0E94D6070197A9F38B2DF7
:10301000DF91CF911F910F91FF90EF90DF90CF90B4
:10302000BF900895CF93DF93EC010E94D017BE01AB
:103030000E94D607DF91CF9108950E941218292F80
:103040002F70E92FE295EF704E2F50E0FA01329782
:10305000EE30F105B8F4EA58FF4F0C949425803F08
:1030600099F018F4883E70F40FC0843F59F40CC0F6
:10307000883E50F0813F31F407C0822F86958695B7
:103080008695089580E0089581E0089528E0929F54
:10309000800D1124682F669566956695982F977018
:1030A00085E0689FB001112440E050E080E0FB0122
:1030B000E40FF51FEF57FB4F208130E0092E02C0CF
:1030C000369527950A94E2F721703327042E01C024
:1030D000220F0A94EAF7822B4F5F5F4F453051056C
:1030E00031F7089528E0929F800D1124E82FE6958E
:1030F000E695E695877051E001C0550F8A95EAF78D
:1031000085E0E89FF0011124EF57FB4F20E030E00D
:1031100070E04081CB01022E02C0969587950A94FB
:10312000E2F78170819584278523842781932F5F1F
:103130003F4F2530310569F708956093DF017093A3
:10314000E0018093E1019093E2010C94B3170F9397
:103150001F9341E050E060E070E004C0440F551F51
:10316000661F771F8A95D2F74095509560957095A8
:103170008091DF019091E001A091E101B091E20125
:103180008A019B01082319232A233B23C901B80183
:103190001F910F910C949D182091A9048095822372
:1031A0008093A904982F977079F430E0482F082E67
:1031B000000C550B2417350739F0859585958595B5
:1031C0000E94A7181092A90408950F931F9341E03D
:1031D00050E060E070E004C0440F551F661F771F89
:1031E0008A95D2F78091DF019091E001A091E101F1
:1031F000B091E2018A019B01082B192B2A2B3B2B52
:10320000C901B8011F910F910C949D186093AE04F1
:103210007093AF048093B0049093B1040C94B317EF
:103220008091800490914F04891719F08F5F877007
:10323000FBCF08950F931F93CF93DF9380914E049C
:1032400082958F7009F05DC080914B04882309F44A
:1032500058C08091800410914F046091490470918E
:103260004A04C0914C04D0914D0491E06F3F09F0A5
:1032700090E0292F06E0811709F443C0209721F040
:103280007F3F21F030E003C031E001C0322F90E0F9
:1032900030FD34C0089FF001099FF00D1124DF01BB
:1032A000A05BBB4F11963C911197371327C03C91FF
:1032B000361324C012963C91129731111FC01396F9
:1032C0004D915C9114974C1B5D0B483C5105B0F43B
:1032D00080914E048F70806180934E04EB5AFB4FB7
:1032E00080818F708061808389E494E00E94330B39
:1032F000DF91CF911F910F910C9410190196877057
:10330000BACFDF91CF911F910F9108959F92AF9205
:10331000BF92CF92DF92EF92FF920F931F93CF93C2
:10332000DF93CDB7DEB761970FB6F894DEBF0FBE5F
:10333000CDBF8C0185E0F801DE011D9601900D9254
:103340008A95E1F7F80190818181E280309149040A
:1033500060914A0440914C0450914D04411551052F
:1033600031F06F3F31F421E03F3F19F403C021E019
:1033700001C020E0F22FF1709F2E20FD23C1F80143
:10338000C380D48029E4A22E24E0B22EF0904B0416
:10339000F601E41BF50BFF2009F4CEC020914E048A
:1033A000E83CF10508F099C0422F407F09F051C078
:1033B000681311C039130FC0FE2CE1100CC02F7020
:1033C000206120934E04C5010E94330B80914E046E
:1033D000F801858337C1CD2831F08F3F31F421E0EA
:1033E0009F3F19F403C021E001C020E020FD03C08D
:1033F00021E02E2502C020E030E0F22FF170FF2EF8
:1034000020FF1DC02091800440914F0456E02417F6
:1034100009F4F6C030E0529FF001539FF00D1124E3
:10342000E05BFB4F6181861306C06081961303C089
:103430006281E61204C02F5F3F4F2770E8CFFE2C59
:10344000EE2009F4FFC080914E04816080934E0409
:1034500050C0681307C0391305C0E11003C0F8015C
:1034600025838DC09D878E878D859E850E941D1822
:10347000882369F1EE2059F120914E04822F829524
:103480008F7090E0029774F08091490490914A0403
:1034900098878F831986DB86CA862C87CE0107968C
:1034A0000E94330B86E0F801A9E4B4E001900D928C
:1034B0008A95E1F70E941A190DC06817E1F09D87FF
:1034C0008E878D859E850E941D1881111EC0C801A2
:1034D0000E94330BFF24F394B5C0422F407F69F75D
:1034E00089E494E00E94330B86E0F50111928A95FD
:1034F000E9F7F12CA7C03913E2CFE110E0CFF801D2
:103500002583C8010E94330B57C0EE2001F32091A0
:103510004E04822F82958F7090E002971CF280916A
:10352000490490914A049A8389831B82DD82CC826C
:103530002E83CE010196B4CFE83CF105E8F5FE2CD0
:10354000EE2029F2681327C0391325C020914E04BC
:1035500020FD18C0822F82958F70482F50E04115B2
:10356000510581F0F80125834F30510541F08F5FFF
:10357000982F9295907F822F8F70892B8583C80119
:103580000E94330B86E0F801A9E4B4E001900D92AB
:103590008A95E1F757C09D878E878D859E850E940D
:1035A0001D1881117FCF80914E04816080934E045D
:1035B000C8010E94330B46C086E0F50111928A953E
:1035C000E9F740C0EE2009F482CF9D878E878D8574
:1035D0009E850E941D18F82E882309F478CF86E076
:1035E000F801A9E4B4E001900D928A95E1F7809189
:1035F000490490914A040E9412180E941A1922C08C
:103600009D878E878D859E850E941218292F229571
:103610002F70223028F49F7039F0811105C00BC043
:10362000243028F49F7049F4805E883020F0C8016F
:103630000E94330B9F2CF92C05C0F8019581907FD7
:1036400099F7F9CF8F2D61960FB6F894DEBF0FBEB4
:10365000CDBFDF91CF911F910F91FF90EF90DF9041
:10366000CF90BF90AF909F9008951092AC0486E0E9
:10367000E2E4F4E0DF011D928A95E9F70C94B317B8
:10368000EF92FF920F931F93CF93DF93EC017B0197
:1036900064E670E088E70E9480228C01EC0EFD1E3B
:1036A000CE15DF0561F017FD0AC0FE01849164E6C6
:1036B00070E00E94D7228C012196892B89F30E9409
:1036C0005B23C801DF91CF911F910F91FF90EF9085
:1036D0000895EF92FF920F931F93CF93DF937C0196
:1036E0008B010E941721811119C0E70101151105F5
:1036F000A1F08091E80085FD0AC08091E8008E77F6
:103700008093E8000E941721882381F307C08991E4
:103710008093F10001501109E9CF80E0DF91CF9152
:103720001F910F91FF90EF9008951F93CF93DF9318
:10373000CDB7DEB7AA970FB6F894DEBF0FBECDBFE8
:10374000E5ECF4E08091F100819324E0ED3CF20798
:10375000C9F78091C604833009F460C030F4813029
:1037600071F0823009F49AC0B1C08A3009F486C081
:103770008B3009F46BC0893009F0A8C020C080915B
:10378000C504813A09F0A2C08091E800877F809348
:10379000E8008091C9049091CA04892B21F468E063
:1037A00089EB94E003C060E080E090E070E00E946C
:1037B0009E218091E8008B778093E80087C08091FC
:1037C000C504813209F082C08091C9049091CA0475
:1037D000029708F07BC08091E800877F8093E80023
:1037E0008091E80082FD05C08091C3048111F8CF6B
:1037F0006DC02091F3008091F20090E0922B02972F
:1038000029F48091F1008B7F813021F48091F100C7
:103810008093B8048091E8008B7754C08091C504F0
:10382000813A09F053C08091C9049091CA04892B50
:1038300009F04CC08091E800877F8093E800809178
:10384000E80080FFFCCF8091190137C08091C5044A
:103850008132E1F58091C9049091CA04892BB1F5B8
:103860008091E800877F8093E8000E944A21809140
:10387000C704809319010E94351B28C08091C5049C
:10388000813221F58091E800877F8093E8000E94D3
:103890004A218091C8048093B70418C08091C50460
:1038A000813AA1F48091E800877F8093E8008091BD
:1038B000E80080FFFCCF8091B7048093F1008091F5
:1038C000E8008E778093E8000E944A218091E8000A
:1038D00083FFCCC18091C5049091C604492F50E06C
:1038E0004A30510508F0C2C1FA01EC57FF4F0C9461
:1038F0009425803821F0823809F0B8C108C0809141
:10390000C1049091C204992389F082600FC0809114
:10391000C9048F70873008F0A9C18093E9008091B5
:10392000EB0085FB882780F91092E9009091E80070
:10393000977F9093E8008093F1001092F10065C1A9
:10394000282F2D7F09F092C1882319F0823061F071
:103950008DC18091C704813009F088C1933009F08E
:1039600080E08093C2042EC08091C70481112AC0D8
:103970008091C9048F702FEF280F263008F076C190
:103980008093E9002091EB0020FF1CC0933021F4CC
:103990008091EB00806214C09091EB009061909355
:1039A000EB0021E030E0A90102C0440F551F8A95C9
:1039B000E2F74093EA001092EA008091EB00886001
:1039C0008093EB001092E9008091E800877F20C18E
:1039D00081114CC11091C7041F778091E30080785A
:1039E000812B8093E3008091E800877F8093E8003B
:1039F0000E944A218091E80080FFFCCF8091E30083
:103A000080688093E300111102C082E001C083E06E
:103A10008093C3042BC18058823008F027C1809165
:103A2000C7049091C8048C3D53E0950779F583E075
:103A30008A838AE289834FB7F894DE01139620E0E7
:103A40003EE051E2E32FF0E050935700E49120FF75
:103A500003C0E295EF703F5FEF708E2F90E0EA3089
:103A600010F0C79601C0C0968D939D932F5F2431AF
:103A700049F74FBF8091E800877F8093E8006AE2B2
:103A800070E0CE0101960E949E21AEC04091C90413
:103A90005091CA04292F332723303105A9F068F447
:103AA0002130310509F4F1C02230310509F0DEC0C2
:103AB0008BE390E0EBE7F4E044C02132310521F1E3
:103AC0002232310571F1D2C0992781309105A1F0E0
:103AD00058F0029709F0CAC0E8ECF4E0E4918E2FA8
:103AE00090E0E8ECF4E02AC0EAEFF4E0E4918E2FF5
:103AF00090E0EAEFF4E022C0E8EEF4E0E4918E2FEB
:103B000090E0E8EEF4E01AC04115510509F4C2C096
:103B10004130510509F0AAC089E090E0E6EAF4E0FE
:103B200010C04115510509F4BAC04130510509F0E2
:103B30009DC08BE790E0E0ECF3E003C0009709F450
:103B400095C02091E800277F2093E8002091CB04C6
:103B50003091CC048217930708F49C0140E02115B2
:103B6000310589F18091C304882309F43DC0853073
:103B7000D9F18091E80083FD37C08091E80082FD93
:103B80002FC08091E80080FFEACF4091F300809140
:103B9000F20090E0942B2115310559F08830910501
:103BA00040F444914093F10031962150310901963F
:103BB000F2CF41E0089709F040E08091E8008E776D
:103BC0008093E800CCCF4111CDCF0AC08091C304CF
:103BD000882351F0853041F08091E80083FD04C0D6
:103BE0008091E80082FFF2CF8091E8008B7780938C
:103BF000E8003CC08038D1F58091E800877F809351
:103C0000E8008091C4048093F1008091E8008E77F1
:103C10008093E8000E944A2129C0811127C0809129
:103C2000C7049091C8049927029704F58091E80091
:103C3000877F8093E8001091C7041093C4040E940A
:103C40004A21111106C08091E30087FD02C081E086
:103C500001C084E08093C30442E061EC81E00E94F3
:103C6000692142E261EC82E00E9469218091E800D2
:103C700083FF1AC08091E800877F8093E8008091DD
:103C8000EB0080628093EB000FC082E190E0E6EBF6
:103C9000F4E057CF89E090E0EDE8F4E052CF80E423
:103CA00090E0EBE3F4E04DCFAA960FB6F894DEBFB8
:103CB0000FBECDBFDF91CF911F9108951F920F923C
:103CC0000FB60F9211242F933F934F935F936F93EF
:103CD0007F938F939F93AF93BF93CF93DF93EF9394
:103CE000FF93C091E900CF708091EC00D82FD17084
:103CF00080FDD0E81092E9008091F000877F8093EA
:103D0000F00078940E94951B1092E9008091F000D9
:103D100088608093F000CD2BCF70C093E900FF91B5
:103D2000EF91DF91CF91BF91AF919F918F917F9153
:103D30006F915F914F913F912F910F900FBE0F9018
:103D40001F901895E8EDF0E080818E7F80831092BF
:103D5000E2001092DA001092E100A0EEB0E08C9147
:103D600081608C9380818F77808319BCA7EDB0E050
:103D70008C918E7F8C9380818F7E80831092B6048D
:103D80000895CF92DF92EF92FF920F931F93CF93FC
:103D9000DF93C8EDD0E088818F7E8883E7EDF0E087
:103DA00080818160808384E082BF81E08093B6045B
:103DB00088818E7F888302EE10E0F80110821092D5
:103DC000DA0081EEC82ED12CF601108288818F771F
:103DD000888388818068888388818F7D888319BCE7
:103DE0001092C3041092C4041092C2041092C10431
:103DF00090EEE92EF12CF70180818B7F8083888102
:103E00008160888342E060E080E00E946921F601E1
:103E100080818E7F8083F8018081816080838081B2
:103E200088608083F70180818E7F808388818061B4
:103E30008883DF91CF911F910F91FF90EF90DF90DA
:103E4000CF9008951F920F920FB60F9211242F93C7
:103E50003F934F935F936F937F938F939F93AF9312
:103E6000BF93EF93FF938091E10082FF09C080919F
:103E7000E20082FF05C08091E1008B7F8093E1002A
:103E80008091DA0080FF2AC08091D80080FF26C090
:103E90008091DA008E7F8093DA008091D90080FFD4
:103EA00018C080E189BD82E189BD09B400FEFDCF63
:103EB00081E08093C3048091B60481110FC00E94F9
:103EC000A21E0E94C11E8091E20084608093E200E5
:103ED00005C019BC1092C3041092B6048091E10091
:103EE00080FF17C08091E20080FF13C08091E20044
:103EF0008E7F8093E2008091E20080618093E200F7
:103F00008091D80080628093D80019BC85E08093AE
:103F1000C3048091E10084FF2EC08091E20084FF01
:103F20002AC080E189BD82E189BD09B400FEFDCFD0
:103F30008091D8008F7D8093D8008091E1008F7EA2
:103F40008093E1008091E2008F7E8093E200809177
:103F5000E20081608093E2008091C404882311F024
:103F600084E007C08091E30087FD02C081E001C0CA
:103F700083E08093C3048091E10083FF27C0809198
:103F8000E20083FF23C08091E100877F8093E100FE
:103F900082E08093C3041092C4048091E1008E7F7C
:103FA0008093E1008091E2008E7F8093E200809117
:103FB000E20080618093E20042E060E080E00E94E5
:103FC00069218091F00088608093F000FF91EF916B
:103FD000BF91AF919F918F917F916F915F914F9121
:103FE0003F912F910F900FBE0F901F90189588232F
:103FF00041F080959091AC0489238093AC040C949B
:1040000086170895882339F09091AC04892B80930A
:10401000AC040C9486170895882309F463C0823891
:1040200069F40E94D70381FF5DC069E380E494E0F6
:104030000E94EB160E94861769E30EC0833891F444
:104040000E94D70380FF4EC063E580E494E00E94A5
:10405000EB160E94861763E580E494E00E94DE166A
:104060000C948617843869F40E94D70382FF3AC003
:1040700067E480E494E00E94EB160E94861767E4F0
:10408000EBCF9CEF980F913A10F4682FE5CF90E2B8
:10409000980F983088F4877021E030E0A90102C0C1
:1040A000440F551F8A95E2F7CA0180959091AC04A0
:1040B00089238093AC04D4CF9BE5980F933020F4F0
:1040C00080E090E00C94C10398E5980F973120F4BC
:1040D00080E090E00C94AB038D3E20F00E948E06B1
:1040E0000C940B0A0895CF93882309F49EC0C82F1F
:1040F0008238B1F40E94D70381FD97C069E380E460
:1041000094E00E94EB160E9486172FEF81EE94E058
:10411000215080409040E1F700C0000069E317C0E3
:104120008338E1F40E94D70380FD7FC063E580E41B
:1041300094E00E94EB160E9486172FEF81EE94E028
:10414000215080409040E1F700C0000063E580E42A
:1041500094E00E94DE16CF910C9486178438B1F457
:104160000E94D70382FD61C067E480E494E00E946E
:10417000EB160E9486172FEF81EE94E021508040CD
:104180009040E1F700C0000067E4E1CF8CEF8C0FB6
:10419000813A80F4E2E4F4E088E494E02191C217EB
:1041A000E1F18E179F07D1F76C2F80E494E00E9415
:1041B000EB16D1CF80E28C0F883068F4C77081E0B5
:1041C00090E001C0880FCA95EAF79091AC04892B62
:1041D0008093AC04C0CFEBE5EC0FE33040F4F0E0AB
:1041E000EC5AFE4F808190E0CF910C94C103E8E53A
:1041F000EC0FE73150F4F0E0EE0FFF1FE95AFE4FED
:1042000080819181CF910C94AB03CD3E70F08C2FC7
:104210000E944707CF910C940B0A6C2F80E494E026
:104220000E94DE160E948617BFCFCF91089520917D
:10423000E4003091E50095E64091EC00842F817018
:1042400040FF23C08091E80080FD1DC08091C30421
:10425000882399F0853099F08091EB0085FD11C09D
:104260004091E4005091E5002417350729F391505F
:1042700011F09A01E1CF84E0089582E0089583E08F
:10428000089581E0089580E008954091E80042FF9C
:10429000DDCF08958091C50487FF11C08091E800AB
:1042A00082FD05C08091C3048111F8CF11C08091B7
:1042B000E8008B770BC08091C304882349F080917C
:1042C000E80080FFF8CF8091E8008E778093E800C7
:1042D0000895982F973068F59093E900981739F072
:1042E0007091EC002091ED005091F00003C0242F5C
:1042F000762F50E021FD02C09F5FECCF3091EB00A4
:104300003E7F3093EB003091ED003D7F3093ED0028
:104310003091EB0031603093EB007093EC00209310
:10432000ED005093F0002091EE0027FDE5CF80E0F6
:1043300008958F708093E90081E008952091CB0467
:104340003091CC042617370748F06115710539F410
:104350002091E8002E772093E80001C0B901FC010C
:1043600020E06115710579F18091C3048823F1F192
:104370008530F1F18091E80083FD3CC08091E80038
:1043800082FD2EC08091E80080FFEBCF2091F300EA
:104390008091F20090E0922B6115710551F0883008
:1043A000910538F421912093F10061507109019633
:1043B000F3CF21E0089709F020E08091E8008E77A4
:1043C0008093E800CECF2111CFCF0AC08091C304E3
:1043D000882361F0853061F08091E80083FD0AC098
:1043E0008091E80082FFF2CF80E0089582E0089596
:1043F00083E0089581E0089562E070E08AE191E051
:104400000C94BF2362E070E08AE191E00C94C82331
:104410000E945104882361F088ED94E00E943B04DF
:1044200081E090E00E94A124892B11F40C944E04A9
:1044300008958091D704883039F460E088ED94E0E5
:104440000E9432061092D7040895CF93DF93D62F9F
:10445000C72F0E94082280E090E00E94A124892BAF
:1044600011F5ED2FFC2F80E090E0DC01AE52BB4F48
:104470002C912193019684309105B9F786ED94E053
:104480000E9409040E947116DC01CB010296A11D55
:10449000B11D8093CE049093CF04A093D004B09329
:1044A000D10481E001C080E0DF91CF910895CF93E6
:1044B000DF93D62FC72F0E9419226091CE047091EE
:1044C000CF048091D0049091D1040E948C16ED2FDE
:1044D000FC2F80E090E02191DC01AE52BB4F2C9389
:1044E000019684309105B9F786ED94E0DF91CF9184
:1044F0000C942C041092B9008CE08093B8000895BD
:10450000EF92FF920F931F93CF93DF93182FEB013E
:104510001092BC0084EA8093BC000E94A9167C0122
:104520008091BC0087FD0EC0CF3F8FEFD807C1F34D
:104530000E94A9168E199F098C179D0788F38EEF8C
:104540009FEF2EC08091B900887F883041F0809124
:10455000B900887F803119F08FEF9FEF21C0109351
:10456000BB0084E88093BC000E94A9168C01809156
:10457000BC0087FD0CC0CF3F8FEFD807C1F30E946E
:10458000A916801B910B8C179D0788F3D8CF8091BB
:10459000B900887F883111F08034F1F680E090E036
:1045A000DF91CF911F910F91FF90EF9008950F939E
:1045B0001F93CF93DF93EB018093BB0084E880933C
:1045C000BC000E94A9168C018091BC0087FD0EC022
:1045D000CF3F8FEFD807C1F30E94A916801B910B24
:1045E0008C179D0788F38EEF9FEF0CC02091B900C8
:1045F000287F81E090E0283211F480E090E09195EE
:1046000081959109DF91CF911F910F910895CF92DC
:10461000DF92EF92FF920F931F93CF93DF936B0183
:104620008A017901B9010E948022E6010C0D1D1D4D
:10463000C017D10761F424E92093BC00DF91CF912A
:104640001F910F91FF90EF90DF90CF90089597FD0D
:10465000F2CFB70189910E94D722EACFCF92DF92A1
:10466000EF92FF920F931F93CF93DF93C62F6A01B0
:104670007901B8010E94802297FD11C0B8018C2FEA
:104680000E94D722E601EC0CFD1CCE15DF0539F0A7
:1046900097FD05C0B80189910E94D722F6CF24E981
:1046A0002093BC00DF91CF911F910F91FF90EF906D
:1046B000DF90CF90089584E98093BC0008958EE147
:1046C0004A9B02C08150E1F74A9BFECF08955A9859
:1046D00080E28A95F1F75A9A0895FC012AE02A951A
:1046E000F1F790E020E080E031E0261779F040E13A
:1046F0004A95F1F7880F4A9B02C08160932700C05A
:10470000000040E14A95F1F72F5FEFCF20E12A95B5
:10471000F1F729B100C0000030E13A95F1F722FB32
:10472000222720F992272081920F90830895EF92FB
:10473000FF920F931F93CF93DF931F92CDB7DEB7F6
:1047400019828C017C01E60EF11C0E151F0559F033
:104750000E945F2368E0CE0101960E946D23F8015C
:1047600081938F01F2CF81E09981911180E00F90C8
:10477000DF91CF911F910F91FF90EF90089590934B
:10478000E2048093E1046093E004529A5A9A0895F7
:104790009093E2048093E1046093E00452985A9A63
:1047A000EA9AE9E6F0E080818F7C80830895615089
:1047B00091E001C0990F6A95EAF720E031E0992372
:1047C00061F0492F482319F05A9A232701C05A98BB
:1047D00040E24A95F1F79695F2CF222311F05A9ACA
:1047E00001C05A9880E28A95F1F75A980895FF928D
:1047F0000F931F93CF93DF93EC018C01060F111DD4
:10480000C017D10741F0F9900E94672368E08F2D0F
:104810000E94D723F5CFDF91CF911F910F91FF9089
:1048200008951F920F920FB60F9211240F931F93AA
:104830002F933F934F935F936F937F938F939F93A8
:10484000AF93BF93EF93FF93CF93DF931F92CDB7B7
:10485000DEB719820E945F2367E0CE0101960E94B5
:104860006D23382F369536953695932F96959570FE
:10487000232F2570920F292F237096959695877078
:10488000920F891348C08981811145C08091E0044D
:10489000831708F440C080E18A95F1F75A9A529A3A
:1048A000A2E0AA95F1F700C00091E1041091E204A2
:1048B000B8E03B9F000D111D11245A98F801658145
:1048C000662321F0868197810E94F7230E94672347
:1048D000F0E1FA95F1F75A9852985A9A80E18A9540
:1048E000F1F7D80112966C911297662369F013962E
:1048F0008D919C9114970E949723D801ED91FC9182
:10490000811105C082E004C0D801ED91FC9188E0DE
:1049100080830E945F230F90DF91CF91FF91EF91F1
:10492000BF91AF919F918F917F916F915F914F91C7
:104930003F912F911F910F910F900FBE0F901F90DD
:1049400018950F931F93CF93DF932091E00430E0ED
:10495000281739070CF471C09C0193E0220F331F14
:104960009A95E1F7C091E104D091E204C20FD31F00
:10497000F894529A5A9845E04A95F1F70000982F1A
:10498000969595708570890F982F9370869586956A
:10499000890F8901082B0E94672384E08A95F1F72B
:1049A00000C067E0802F0E94D72340E14A95F1F7CD
:1049B00052985A9A4A9902C000C0FCCF87E090E012
:1049C0004A9B0EC0019751F4529A5A9AE881F98194
:1049D00081E08083789481E090E031C000C0F0CF26
:1049E0006D81662381F08E819F810E9497238111C2
:1049F0000AC0529A5A9AE881F98182E080837894B9
:104A000082E090E01CC00E945F2380E28A95F1F76B
:104A10005A98529A40E14A95F1F76A81662321F04B
:104A20008B819C810E94F7230E946723E881F98192
:104A30001082789480E090E002C084E090E0DF9102
:104A4000CF911F910F910895F999FECF92BD81BD2D
:104A5000F89A992780B50895A6E1B0E044E050E0C7
:104A60000C945E25A8E1B0E042E050E00C945E2595
:104A7000262FF999FECF92BD81BDF89A019700B417
:104A8000021639F01FBA20BD0FB6F894FA9AF99AB7
:104A90000FBE08950396272F0E9439250E943825BE
:104AA000252F0E943925242F0C9439250196272F74
:104AB0000E9439250C943825DC01CB01FC01F999C1
:104AC000FECF06C0F2BDE1BDF89A319600B40D925A
:104AD00041505040B8F70895AA1BBB1B51E107C0D5
:104AE000AA1FBB1FA617B70710F0A61BB70B881F7E
:104AF000991F5A95A9F780959095BC01CD0108950D
:104B000097FB072E16F4009407D077FD09D00E947A
:104B10006C2507FC05D03EF4909581959F4F089534
:104B2000709561957F4F0895EE0FFF1F0590F491EA
:084B3000E02D0994F894FFCF79
:104B380000140014140135660021007F220003AD23
:104B480015D115B215C410C01001CD0404CE04054A
:104B5800D204D70408D804000000000134C6979492
:104B68000000000036323331F7F6F5F400FF01009B
:104B7800010000FFFF0000010001FF0000081018FD
:104B880018100800818283E200E900EA00B500B647
:104B980000B700CD008301CC008A01920194012165
:104BA80002230224022502260227022A02B300B4A5
:064BB800006F0070000018
:00000001FF
