:100000000C94AB030C94F2030C94F2030C94B32500
:100010000C94F2030C94F2030C94F2030C94F2038C
:100020000C94F2030C94F2030C94121B0C944E1AD1
:100030000C940F200C94F2030C94F2030C94F20332
:100040000C94F2030C94F2030C94F2030C94F2035C
:100050000C94F2030C948A1F0C94F2030C94F20398
:100060000C94F2030C94F2030C94F2030C94F2033C
:100070000C94F2030C94F2030C94F2030C94F2032C
:100080000C94F2030C94F2030C94F2030C94F2031C
:100090000C94F2030C94F2030C94F2030C94F2030C
:1000A0000C94F2030C94F2030C94F2030F0F0F0F55
:1000B000490F490FA00FBC0F52115211C70FA510C5
:1000C000B610B61069189018261A9018261AD81863
:1000D000FB18261AEA19FD19F91BF91B0C1C0C1C3C
:1000E000021C0C1C0C1C0C1CF91BF91B071C0C1C07
:1000F0000C1C071C000101010101010101010202A8
:1001000002020202020202030303030303030304C5
:100110000404040404040505050505060606060690
:10012000070707070708080808090909090A0A0A4A
:100130000B0B0B0C0C0C0D0D0D0E0E0E0F0F0F10EC
:100140001011111112121313141415151616171776
:10015000181819191A1A1B1B1C1D1D1E1E1F2020E2
:10016000212222232424252626272829292A2B2C2C
:100170002D2D2E2F30313232333435363738393A4F
:100180003B3C3D3E3F404142434445464748494A47
:100190004C4D4E4F50515354555658595A5B5D5E15
:1001A0005F616264656668696B6C6D6F70727375B0
:1001B00077787A7B7D7E8082838587888A8C8E8F14
:1001C00091939596989A9C9EA0A2A3A5A7A9ABAD42
:1001D000AFB1B3B5B7BABCBEC0C2C4C6C9CBCDCF30
:1001E000D1D4D6D8DBDDDFE2E4E7E9EBEEF0F3F5DE
:1001F000F8FAFDFF00AF000000001700150008002E
:100200001A0014002B00000000000A00090007007B
:10021000160004002968135012500500190006004A
:100220001B001D00E00028612C42E200A800000035
:10023000000000000000000000001C0018000C007E
:10024000120013002F00000000000B000D000E0034
:100250000F00330034001150105011001000360010
:1002600037002D002D024C412A62E6630452000043
:10027000000000000000000000002E0227142414DB
:100280001F141E020100000000002E00260225029D
:10029000211420020100010001003014261425144D
:1002A00030022202010001002C4301000100010084
:1002B00000000000000000000000300038022D1493
:1002C00064141F022102000000002D0038002402E7
:1002D00032023200081401000100230227026400E8
:1002E00064022D0220140100010001000100010040
:1002F000000000000000000000002A002600250089
:1003000024002B0001000000000037002300220021
:100310002100E000010001000100360020001F0064
:100320001E00270001000100010001000100010082
:1003300000000000000000000000F3004A004E0032
:100340004B004D00000000000000F2005000510082
:1003500052004F00F90001000100F100EF00EE0033
:10036000ED00F000FA004C43010001000100010023
:1003700000000000000000000000450042004100B5
:100380004000E20001000000000044003F003E0089
:100390003D00E00001000100010043003C003B0083
:1003A0003A00E1000100010001000100010001002C
:1003B0000000000000000000000039004600470077
:1003C0004800AC00AB0000000000A90049004A0052
:1003D0004B00A800AE0001000100AA004C004D0037
:1003E0004E00AD00A6000100010001000100010067
:1003F00000000000000000000000000000000000FD
:1004000000000000000000000000000000000000EC
:1004100000000000000000000000000000000000DC
:1004200000000000000000000000000000000100CB
:1004300000000000000000000000000000000000BC
:100440000000000000000000000000000052055203
:100450000752000000000000000000000000000043
:10046000000000000000000000000000010001008A
:100470000000000000000000000022002100200019
:100480001F001E00290000000000170015000800D2
:100490001A0014002B0005001300190009000700C2
:1004A00016001D00350006622C61E2003F46010087
:1004B000000000000000000000000000000000003C
:1004C000000000000000000000000000000000002C
:1004D000000000000000000000000000000000001C
:1004E000000000000000000000000000010001000A
:1004F00000000000000000000000000000000000FC
:10050000000000000100000000003E003D003C0033
:100510003B003A0001000100010000000000000063
:1005200000000000010001000100010001000100C5
:1005300000000000000000000000000000000000BB
:1005400000000000000000000000000000000000AB
:10055000000000000000000000000000000000009B
:100560000000000000000000000000000100010089
:1005700000000000000000000000150008001A0044
:10058000140029001E0000000000090007001600EA
:100590000400E1001F0028000500190006001B00F0
:1005A0001D00E000200010002C002B00E2000100E4
:1005B000000000000000000000000000000000003B
:1005C000000000000000000000000000000000002B
:1005D000000000000000000000000000000000001B
:1005E0000000000000000000000000000100010009
:1005F00000000000000000DA0281FFD9F1DB20A436
:10060000A62EAF00A0C000A1C800AED580A81FD301
:1006100000408D14200000AE05010902A1018502F1
:100620000901A100050919012908150025019508EE
:10063000750181020501093009311581257F950277
:100640007508810609381581257F95017508810691
:10065000050C0A38021581257F950175088106C0B1
:10066000C005010980A101850319012AB700150100
:1006700026B700950175108100C0050C0901A10184
:10068000850419012AA002150126A0029501751002
:100690008100C005010906A101050719E029E71538
:1006A00000250195087501810295017508810105F4
:1006B00007190029FF150026FF009506750881001F
:1006C0000508190129059505750191029501750324
:1006D0009101C009023B00020100A0FA09040000D8
:1006E0000103010100092111010001224000070559
:1006F000810308000A090401000103000000092128
:1007000011010001227B000705820320000A12016B
:10071000100100000008EDFE0000010001020001D0
:100720001E034B00790072006900610020004B003D
:100730006500790062006F006100720064000000D3
:100740001003730070006C00690074006B0062009D
:1007500000000403090411241FBECFEFDAE0DEBF5E
:10076000CDBF04B603FE27C08091E5049091E60456
:10077000A091E704B091E8048730904BA740B04BBC
:10078000D1F41092E5041092E6041092E70410925E
:10079000E80414BE84B7877F84BF0FB6F894A89589
:1007A00080916000886180936000109260000FBEAD
:1007B000E0E0F8E3099511E0A0E0B1E0ECE7FEE449
:1007C00002C005900D92A638B107D9F724E0A6E83B
:1007D000B1E001C01D92A53EB207E1F70E944A12A6
:1007E0000C943C270C9400009091D90192FF0DC00D
:1007F000282F2871283019F4877F846006C0282F9D
:100800002471243011F48B7F886093FF0DC0282F52
:100810002871283119F4877E846106C0282F24713D
:10082000243111F48B7E88612091DA0120FF0DC004
:10083000382F3871383019F4877F816006C0382F1F
:100840003171313011F48E7F886021FF0DC0282F67
:100850002871283119F4877E816106C0282F217103
:10086000213111F48E7E886194FD877E08951F9357
:10087000CF93DF93CDB7DEB767970FB6F894DEBF9F
:100880000FBECDBF342F4B8B252F5C8B6D8B7E8B9A
:100890008F8B4E895F8961111092C40486E0FE013E
:1008A0003D96DF01982F1D929A95E9F73D872E8797
:1008B0006F87598B488BDE01179601900D928A95B0
:1008C000E1F7CE0107960E94101C81113EC086E020
:1008D000FE013796DE01119601900D928A95E1F79F
:1008E000FF81E8856A857B856115710531F0EF3FF1
:1008F00031F481E0FF3F19F403C081E001C080E0E2
:1009000080FD23C02091680430E0C9010196877002
:1009100099274091990450E08417950779F1F9835C
:10092000EA837D836C8396E0929FD001939FB00D04
:100930001124A759BB4FFE01319601900D929A9553
:10094000E1F7809368040E94432216E080919904A5
:10095000909168048917F9F0189FC00111248759F4
:100960009B4F0E94101C8823B1F08091990490E065
:1009700001968770992780939904E8CF0E94DC1D27
:100980001092680410929904E2E6F4E086E0DF0138
:100990001D928A95E9F767960FB6F894DEBF0FBEF1
:1009A000CDBFDF91CF911F9108950C94BF1F20916F
:1009B000CD013091CE012817390771F09093CE0107
:1009C0008093CD01E091EF01F091F001309721F09B
:1009D0000084F185E02D099408952091CB01309198
:1009E000CC012817390771F09093CC018093CB018B
:1009F000E091EF01F091F001309721F00680F7814E
:100A0000E02D09940895E091EF01F091F001309705
:100A100021F00190F081E02D099480E0089580910B
:100A20002B048823F9F00E94BF1FDC01CB01805A00
:100A30009541AF4FBF4F8093240490932504A0931A
:100A40002604B09327048091280481110BC062E032
:100A500070E084EF91E00E943017892B19F481E057
:100A600080932804809128040895E091EE01F0E03D
:100A7000E650FE4FDC018C919081891B282F90E07D
:100A8000121634F4215090819F5F908391E0F8CF4B
:100A9000282F87FD20E0821B882331F08F5F908113
:100AA0009150908391E0F8CF91110C94D504089562
:100AB000E091FD01F0E0E650FE4F2081FC01208333
:100AC0000895882311F0FA0101C0FB01099425E083
:100AD000E8EEF1E0DC0101900D922A95E1F720911A
:100AE000E5013091E6014091E701FC012583368361
:100AF000478308951092E70108958091E7010895D2
:100B0000309101018091E80180FF16C0E091000161
:100B100063E0E69FF0011124E357FE4F539A8BB137
:100B2000877F9BB198602FB7F894AF0163E0369F41
:100B3000400D511D112414C08091020190910301B8
:100B4000891720F7E82FF0E0AF01440F551FE40F9D
:100B5000F51FE357FE4F1182108212828F5FF0CF94
:100B6000E417F50789F0319168E09BB9000000C0F7
:100B700037FF8BB9330F000000C000C000C08BB935
:100B800000C06A9591F7ECCF2FBF8FE594E00197F5
:100B9000F1F700C0000008958091E801982F969524
:100BA000913021F0817082608093E8010895CF92A6
:100BB000DF92EF92FF926B017C010E94CC05B7019E
:100BC000A60188E090E0FF90EF90DF90CF900C942A
:100BD000EC269F92AF92BF92CF92DF92EF92FF925C
:100BE0000F931F93CF93DF939091E80190FFD3C0B1
:100BF000922E142FC62FD82FE92FE695F0E0E65D50
:100C0000FE4F80818093E5019E7F923009F095C070
:100C1000E42FF0E0611106C0EC50FF4FE491FE2F8D
:100C20002E2F72C0E62EF12CEC50FF4FF4910F2FB7
:100C3000CF2ED12C26E0D29FC00111242FEF30E01F
:100C4000B9010E940E274BEA4603C001479F900D51
:100C500011248D0F911D8D0F911DB82EBB0CB80E58
:100C6000A9014E195F094C9DC0014D9D900D5C9DE1
:100C7000900D1124E92FCB9DA0011124452F55275C
:100C8000D901A41BB50BAC9DA001AD9D500DBC9D21
:100C9000500D1124D901AB19B1095D01AE9CD001F1
:100CA000AF9CB00DBE9CB00D1124AB2FBB272A1BEF
:100CB0003B0B2C9DD0012D9DB00D3C9DB00D112402
:100CC0002B2F6230710591F048F461157105E1F048
:100CD00061307105B9F42F2FF52F16C064307105FE
:100CE00069F040F06630710579F00CC02F2FF92FB4
:100CF000EB2F0AC0F92FE02F252F06C0292FEF2F49
:100D0000FB2F02C0292FE52F809102019091030152
:100D1000891788F4A82FB0E0AD01440F551FA40F28
:100D2000B51FA357BE4F1196FC9311972C931296A3
:100D3000EC938F5FEDCF0E9480058091E901D8137D
:100D400008C08091EA01C81304C08091EB01181714
:100D500029F08091E70182608093E701D093E90157
:100D6000C093EA011093EB019920A9F06091E8018A
:100D70007091E9018091EA019091EB01DF91CF91AF
:100D80001F910F91FF90EF90DF90CF90BF90AF90A9
:100D90009F900C94D705DF91CF911F910F91FF90F9
:100DA000EF90DF90CF90BF90AF909F900895E8EEC6
:100DB000F1E0438121E1421B08F440E021E062813F
:100DC00081810C94E905E8EEF1E0438121E1420FD5
:100DD00008F44FEF21E0628181810C94E905E8EE8F
:100DE000F1E0628121E1621B08F460E021E04381CF
:100DF00081810C94E905E8EEF1E0628121E1620F66
:100E000008F46FEF21E0438181810C94E905E8EE5D
:100E1000F1E0818121E04381628188500C94E905F1
:100E2000E8EEF1E0818121E043816281885F0C94EA
:100E3000E9058091EC01882319F081508093EC0141
:100E40006091E8017091E9018091EA019091EB01D4
:100E50000C94D7058091EC01833018F48F5F809358
:100E6000EC016091E8017091E9018091EA019091B3
:100E7000EB010C94D7058091E80180FF1EC08170C2
:100E800082608093E8018091E70181608093E701AF
:100E9000662351F06091E8017091E9018091EA01C7
:100EA0009091EB010E94D70520E04091EB01609109
:100EB000EA018091E9010C94E90508951F93CF930D
:100EC000DF93EC01162F8F8180FF20C098818091E5
:100ED000E80190FF08C081608093E80188818695D1
:100EE0000E943B0713C08E7F8093E8018091E70149
:100EF00081608093E7012FEF80E792E021508040EE
:100F00009040E1F700C000000E9480058F8181FFC2
:100F100009C0212F4B816A818981DF91CF911F9177
:100F20000C94E905DF91CF911F9108958091E8011C
:100F30008695815009F481E061E00C943B0761E003
:100F400081E00C943B07E8EEF1E083E080831182BE
:100F50008FEF828383831482A5EEB1E012968C9189
:100F60001297836012968C93608171818281938144
:100F70000C94D7058D3E39F49091350497FF35C018
:100F80001092350459C08E3E29F4909135041916FB
:100F9000BCF32BC0909134048F3E29F497FF25C0F9
:100FA0001092340449C0803F19F41916CCF31DC0C7
:100FB00090913604893F29F41916BCF41092360436
:100FC0003BC08A3F19F497FF10C0F8CF8B3F39F42C
:100FD0009091370497FF09C0109237042DC08C3FC1
:100FE00021F4909137041916BCF39FE0980F9830C4
:100FF00080F421E030E0A90102C0440F551F9A950A
:10100000E2F7CA01809590913304892380933304D9
:1010100013C08D3F21F4809159048E7F0BC08E3F09
:1010200021F4809159048D7F05C08F3F29F4809170
:1010300059048B7F8093590480913404811106C038
:1010400080913504811102C010922F0480913604E2
:10105000811106C080913704811102C010922C04C6
:1010600008958091590480FD16C081FD16C082FD4F
:1010700018C080912C04882391F0883290F428E0E5
:10108000829FC001112468E270E00E942227862F0F
:10109000672B29F007C082E0089584E0089581E07D
:1010A000089588E008958091590480FD14C081FD61
:1010B00014C082FD16C080912F04882381F08431F2
:1010C00080F422E3829FC001112464E170E00E9459
:1010D0002227862F08958CE0089589E1089585E000
:1010E000089582E308958D3E21F40E94530881956E
:1010F00004C08E3E29F40E9453088093350408955D
:101100008F3E21F40E945308819504C0803F29F44A
:101110000E945308809334040895893F19F40E9473
:10112000310805C08A3F31F40E94310881958093CF
:10113000360408958B3F21F40E943108819504C044
:101140008C3F29F40E9431088093370408959FE072
:10115000980F983078F421E030E0A90102C0440FE4
:10116000551F9A95E2F7CA0190913304892B809319
:10117000330408958D3F21F48091590481600BC0A0
:101180008E3F21F480915904826005C08F3F29F47D
:1011900080915904846080935904089580918C0152
:1011A000811118C08091D80080618093D8008AE1B5
:1011B0008A95F1F700C08091D90080FD02C082E0DD
:1011C00001C081E080938C01823021F40E94921A48
:1011D00010924F0481E090918C01913009F080E0F1
:1011E0000895F894E82FE295EF70F0E031A1282FF0
:1011F0002F7081E090E001C0880F2A95EAF7982FC0
:101200009095932391A392A1892B82A3789408951A
:10121000CF93DF93E72FF0E028E0829FE00DF11DF0
:101220001124B3E0EE0FFF1FBA95E1F7E60FF11DB1
:10123000EE0FFF1FEA50FE4FC591D491CE01C23888
:10124000D10569F1B0F4C133D10509F475C048F492
:10125000C932D10509F469C0CA32D10509F473C095
:1012600085C0C533D10509F459C0C933D105B9F0DA
:101270007DC0C33ED10571F138F4C03ED105B1F057
:10128000C23ED10511F172C0C63ED105B9F1C73ECB
:10129000D105C9F1C43ED10509F068C024C0209130
:1012A000D90120FD5DC021FD5BC060C02091D90146
:1012B00020FD50C02091DA0120FF51C18091D90159
:1012C00084FD4BC183EE90E04AC12091D90122FFF9
:1012D00046C1F4CF8091D90182FD3FC08091DA01EF
:1012E00080FD3EC0EBCF2091DA0121FF38C1809113
:1012F000D90184FD32C187EE90E031C12091D9013E
:1013000023FF2DC1F4CF8091D90183FD2CC08091A2
:10131000DA0181FFECCF84EE90E021C12091D90168
:1013200025FF1DC189E290E01AC12091D90125FF56
:1013300016C185E390E013C12091D90126FF0FC1AA
:101340008AE290E00CC12091D90126FF08C181E317
:1013500090E005C189E390E002C182EE90E0FFC019
:1013600080EE90E0FCC086EE90E0F9C0C11551E53A
:10137000D50708F06CC0C11520E5D207F0F0CE010A
:10138000F4E096958795FA95E1F7282F23703C2F86
:10139000337081E090E002C0880F991F3A95E2F720
:1013A0009C68922B2C2F2F702695269540E2249F27
:1013B00090011124822B932BD2C0C83ED10570F529
:1013C000C03ED10508F0CBC0C83AD105B8F4C53A43
:1013D000D10550F02C2F255AC22FD0E0CC5ADE4F29
:1013E000888190E09064BBC0C130D10509F4B7C0DA
:1013F00008F4B3C0249708F4B0C0B1C0CF3BD10506
:1014000008F0ABC02C2F285AC22FD0E0CC0FDD1F24
:10141000C95ADE4F888199819464A1C0C11540E208
:10142000D40760F4C11551E0D50708F098C0CD3E4F
:10143000D10508F492C0CE01906591C0C11580E439
:10144000D80708F48AC0CE019F70906A88C0C11581
:1014500095E5D90708F040C0C11524E5D20728F06A
:101460009C2F8827846F906A7AC0C11543E5D40702
:10147000A8F09E012370332781E090E002C0880F1E
:10148000991F2A95E2F72C2F2695269540E2249F56
:1014900090011124822B932B9A6861C0C11552E5EB
:1014A000D50728F49C2F8827816F906A58C09E0129
:1014B0002370332781E090E002C0880F991F2A959E
:1014C000E2F72C2F2695269550E2259F90011124B6
:1014D000822B932B9C6843C0C11589E5D807B0F4D3
:1014E000C11598E5D90728F09C2F8827806F906A4E
:1014F00036C0C11526E5D20780F58C2F0E94F40373
:101500008F7190E0982F8827906229C0C1154AE515
:10151000D40790F48C2F8F700E94F4039E0194E006
:10152000369527959A95E1F72F7030E0322F2227D4
:101530003069A901482B0FC0CE0190568115904209
:1015400060F48D2F8F710E94F4039E013327306267
:101550008F71A901582BCA0102C080E090E0DF9191
:10156000CF910895EF92FF920F93CF93DF93C42F03
:10157000D22FFC0182818823D1F04093CF010E94B9
:1015800003209093CA018093C90180E28C0F8830B8
:1015900008F06DC0C77081E001C0880FCA95EAF7F6
:1015A000DF91CF910F91FF90EF900C94F21D8091FD
:1015B000CF0148134BC08091C9019091CA010E948C
:1015C000B01F883C910508F041C0CD17C9F080E2FA
:1015D0008C0F883040F4C77081E001C0880FCA9535
:1015E000EAF70E94E71D80E28D0F883048F481E021
:1015F0009D2F977001C0880F9A95EAF70E94F21DFF
:10160000093319F0E12CF12C03C080E5E82EF12C10
:10161000802F0E94631EE114F10451F08FE99FE0D6
:101620000197F1F700C0000091E0E91AF108F3CF4B
:10163000802F0E94FC1D80E28D0F8830C0F4D7708F
:1016400081E001C0880FDA95EAF70AC080E28C0FCA
:10165000883068F4C77081E001C0880FCA95EAF746
:10166000DF91CF910F91FF90EF900C94E71DDF91E8
:10167000CF910F91FF90EF9008950E940320209149
:101680003404211104C020913504222321F09093C9
:1016900031048093300420913604211104C020913C
:1016A0003704222321F090932E0480932D04E0919F
:1016B000EF01F091F001309749F082E0809332041D
:1016C0000480F581E02D82E394E0099408958F92DF
:1016D0009F92AF92BF92CF92DF92EF92FF920F93C1
:1016E0001F93CF93DF9300D000D0CDB7DEB78CE24D
:1016F000C82E81E0D82E9BEDE92E91E0F92E47010E
:1017000010E0AA24A394B12CB601D6018C91F894D0
:10171000E82FE295EF70F0E021A18F70A50102C0E3
:10172000440F551F8A95E2F7CA01922F982B91A377
:1017300092A18095892382A3789400C0E4E3F1E02C
:1017400020E030E000E04191842F82958F7090E09E
:10175000DC0190968C9190E04F7002C09595879532
:101760004A95E2F780FD07C08A2D022E01C0880F3E
:101770000A94EAF701C080E0082B2F5F3F4F283022
:10178000310509F7BFEFCB1ADB0AFB0180810E940C
:10179000F108F0EAFA95F1F7D4018C91081719F0E5
:1017A0000C9381E001C080E0182BBFEF8B1A9B0ADD
:1017B000E0E3CE16E1E0DE0609F0A6CF0091E401F9
:1017C000112349F081E080938A010E9403209093C5
:1017D00089018093880180918A018823B9F08091E2
:1017E0008801909189010E94B01F069778F0E02F40
:1017F000F0E0EE50FE4FD7018D917D018193BFED5A
:10180000EB16B1E0FB06B9F710928A010E94CE08F0
:101810006091E4018823C9F119821A821B821C821B
:10182000862F90E0BE016F5F7F4F8E509E4F0E94CB
:10183000C723811112C080918B018F5F80938B0130
:10184000863068F1E091E301F0E0EE50FE4F108247
:1018500011821282138281E023C010928B01E091E9
:10186000E301F0E0EE50FE4FDE0111969E012B5F8A
:101870003F4F80E09D914081491711F0908381E0B6
:101880003196A217B307B1F70BC070E06E507E4FD0
:101890008091E30190E08E509E4F0E94F92380E0FA
:1018A000112311F081E090E00F900F900F900F90B6
:1018B000DF91CF911F910F91FF90EF90DF90CF902C
:1018C000BF90AF909F908F9008958F929F92AF920C
:1018D000BF92CF92DF92EF92FF920F931F93CF931D
:1018E000DF93CDB7DEB72A970FB6F894DEBF0FBEF1
:1018F000CDBFFC01D080118183819481892B39F087
:101900001F3F39F491E00FEFD01203C003C091E004
:1019100001C090E090FDA3C57F0185E0DE01169631
:1019200001900D928A95E1F7F70122818E819F81C6
:10193000222349F00E942821082F682F8E819F8141
:101940000E94A12103C00E947521082FE12FF0E021
:1019500018E0019FE00DF11D112443E0EE0FFF1F81
:101960004A95E1F7ED0DF11DEE0FFF1FEA50FE4F16
:1019700005911491043F2CE5120759F190F4093DAB
:101980008CE51807E9F00A3D9CE51907A1F1083D2F
:10199000ECE51E07B1F506E221EE41EE68ED7CE5CF
:1019A00014C0063FFCE51F0701F1C8F0073F3CE506
:1019B000130739F507E225EE46EE67EF7CE505C033
:1019C00007E225EE45EE69ED7CE5C7010E94B20A0B
:1019D000B2C406E221EE40EE64EF7CE5F6CF07E20A
:1019E00025EE44EE65EF7CE5F0CF06E221EE42EE17
:1019F00066EF7CE5EACF08E221E045EE6AED7CE5A2
:101A0000E4CFF7018281882309F43EC11092CF010F
:101A10000230FCE51F0708F421C106312CE512074E
:101A200030F0C8018B5F9C45099708F017C10E94F0
:101A30005F209093DA018093D90100313CE51307D0
:101A400009F4C3C008F041C008309CE5190709F447
:101A50009AC0F0F40430FCE51F0709F487C068F46D
:101A600002303CE5130709F477C003301C4509F048
:101A7000E5C08091D901826076C006309CE51907E7
:101A800009F46EC008F07BC08091D90188606BC0FA
:101A90000C30FCE51F0709F485C068F40A303CE50A
:101AA000130709F474C008F079C00E94DC1D80910E
:101AB000D901806858C00E309CE5190709F476C03A
:101AC00008F07FC08091D9018BC00C3FFCE51F0757
:101AD00009F44FC018F503313CE5130709F47DC044
:101AE00078F401319CE5190709F473C002311C45F3
:101AF00009F0A4C00E94DC1D8091D9018F7733C00A
:101B00000531FCE51F0709F472C008F486C00B3FDD
:101B10001C4509F093C08091DA013EC001158DE5A6
:101B2000180709F45FC058F40E3FECE51E0709F4EE
:101B300044C008F43FC08091DA0182602DC00230B9
:101B40002DE5120709F475C008F45DC003301D458A
:101B500009F074C060E06EC08091D901816003C05B
:101B60008091D90180618093D90168C08091D901A9
:101B700011C08091DA0182608093DA015FC08091A8
:101B8000D9018062F0CF8091D9018064ECCF80913F
:101B9000D90188608460E7CF8160EECF8091D90160
:101BA0008E7FE1CF8091D9018D7FDDCF8091D901EA
:101BB000877FD9CF8091DA0118C08091DA018D7FBB
:101BC000DBCF8091D9018F7ECECF8091D9018F7DDF
:101BD000CACF8091D9018F7BC6CF8091D901877FF1
:101BE0008B7FC1CF8091DA018D7F8E7FC5CF8091B1
:101BF000D90182FB222720F991E0922790FB82F9FC
:101C000090FB83F9B0CF8091DA01982F9095917075
:101C10008E7F892B90FB81F9AFCF0E94DC1D8091D4
:101C2000D90187FB222720F991E0922790FB87F9C1
:101C30009ACF61E08EE090E00E94DA266091D901AF
:101C40001091DA0184E090E00E94DA26612F82E2AE
:101C500090E00E94DA260E94DC1D6DC306312CE55F
:101C6000120721F58091C5048A7A91E009F490E089
:101C70009093D001882311F065E301C069E28AE501
:101C800094E00E9445200FC00631FCE51F0709F0D3
:101C900064C08091D001882309F46CC365E38AE5B0
:101CA00094E00E9438200E94E12045C30B35FDE5F9
:101CB0001F0709F44CC058F401153CE51307C1F0A7
:101CC0000F3D1C4509F065C00E94702034C30C35DF
:101CD0009DE5190709F43DC00D351D4509F059C0B2
:101CE0008091DA0182FB882780F991E0892732C050
:101CF0000E94DC1DFFEF04E31CE0F15000401040A7
:101D0000E1F700C0000081E08093E00080E2809372
:101D1000D8001092C9008FE19EE40197F1F700C04E
:101D2000000087E090EBDC018093E5049093E604EB
:101D3000A093E704B093E8049CE088E10FB6F89420
:101D4000A895809360000FBE90936000FFCF81E064
:101D500001C080E00E940E211CC08091C5048272E7
:101D60000A3C9CE5190709F464C308F0DAC2063C92
:101D7000FCE51F0709F44EC308F0FEC2043C3CE535
:101D8000130709F43DC308F040C3033C1C4509F4A4
:101D90000FC3F701828100811181882349F0C801B6
:101DA0000E942821D82E682FC8010E94A12104C0BA
:101DB000C8010E947521D82EB8018D2D0E940809F6
:101DC0008C01982EF701D280A580A2943FE0A32237
:101DD0008091C204877099F0DD2089F0812F807F87
:101DE000803421F080E2800F883048F082E00E9449
:101DF000FB218091C2048770CC24C3948111C12C33
:101E0000B12EB2942FE0B2228B2D90E08C30910550
:101E100008F048C2FC01EA5AFF4F0C943627812F84
:101E2000807F1F70882311F01295107FDD20B9F09C
:101E3000112309F422C280E2800F883010F0911043
:101E400006C08091C504182B1093C50405C080916D
:101E5000C404182B1093C4040E94E1200EC2802FEA
:101E60000E94FC1D112309F41DC2005E109508306C
:101E700010F0911006C08091C50418231093C5047A
:101E800005C08091C40418231093C4040E94E1206B
:101E900009C2812F807F1F70803211F01295107F50
:101EA000992021F0F1E09F1601F12EC0DD20A1F074
:101EB0008091C604AA2071F001E0A0120BC0182B7B
:101EC0009091DA0192FDEEC1181709F4EBC110935D
:101ED000C604E8C1812B10C0AA2021F021E0A2167F
:101EE00009F4E0C10E94DB2027C0DD2041F035E08D
:101EF0003A1508F4D7C1812F0E94F21DD3C184E0A6
:101F00008A1508F4CFC118C0DD2049F0AA2099F342
:101F1000F701858180FFB1C18F708583ECCFAA2046
:101F200059F0093309F0BBC1FFEF17EE23E0F15080
:101F300010402040E1F7B1C1812F0E94E71DB2C1DE
:101F4000812F86958695837019F0813059F0AAC14A
:101F5000DD2019F0C801937002C080E090E00E947B
:101F6000ED04A6C1DD2019F0C801937002C080E025
:101F700090E00E94D7049CC1802FDD2019F00E94C0
:101F8000730802C00E94BA070E943D0B91C1812FC5
:101F9000837009F069C0D11089C1902F92959695F0
:101FA0009770990F990F802F8F70882E912CA12CEC
:101FB000B12C092E04C0880C991CAA1CBB1C0A94C5
:101FC000D2F704FF12C04FE050E060E070E004C0C0
:101FD000440F551F661F771F9A95D2F7DB01CA0180
:101FE00080959095A095B09503C080E090E0DC01CD
:101FF00016951695412F4370423019F1C8F400919F
:10200000C7041091C8042091C9043091CA0441301A
:1020100059F088299929AA29BB29BC01CD0160233F
:102020007123822393230AC0802A912AA22AB32AE9
:10203000BC01CD01682979298A299B290E9439226E
:1020400035C188299929AA29BB290091C704109173
:10205000C8042091C9043091CA04BC01CD01602795
:10206000712782279327EACFDD2019F0812F817015
:1020700001C08695882309F419C1902F92959695F1
:102080009770990F990F802F8F70882E912CA12C0B
:10209000B12C092E04C0880C991CAA1CBB1C0A94E4
:1020A000D2F704FF12C04FE050E060E070E004C0DF
:1020B000440F551F661F771F9A95D2F7DB01CA019F
:1020C00080959095A095B09503C080E090E0DC01EC
:1020D00016951695412F43704230D9F068F500915E
:1020E000D5011091D6012091D7013091D80141300E
:1020F00059F088299929AA29BB29BC01CD0160235F
:102100007123822393231EC0802A912AA22AB32AF4
:1021100013C088299929AA29BB290091D5011091BA
:10212000D6012091D7013091D801BC01CD016027A3
:1021300071278227932706C0BC01CD016829792920
:102140008A299B290E94CC21B1C01F70DD2039F063
:10215000812F0E941822802F0E94F21DA7C0802F7D
:102160000E94E71D812F0E94D621A0C0802F32EF50
:10217000931609F440C0391538F090EF991661F0C4
:10218000E1EF9E1699F174C0F3EF9F16D9F124EF99
:10219000921609F44EC06CC0DD2019F134E03A15F6
:1021A00008F480C01F7181E090E0A0E0B0E0AC01D5
:1021B000BD0104C0440F551F661F771F1A95D2F743
:1021C0008091D5019091D601A091D701B091D8010D
:1021D0008A019B01082719272A273B27C901B80133
:1021E00025C025E02A1508F45DC0DCCFDD2029F0EC
:1021F000812F8F7130C0DD20D9F3812F8F710E9424
:10220000D62150C0DD2079F01F7181E090E0A0E080
:10221000B0E0BC01CD0104C0660F771F881F991F75
:102220001A95D2F703C060E070E0CB010E94CC2188
:1022300039C0DD2099F01F71812F0E9418228091F2
:10224000DA0182FD07C038E0139FC00111248360CA
:102250008093C204812F0E94182224C081E00E9432
:10226000FB2181E08A15F0F482E00E94FB211AC074
:10227000DD2039F0AA2009F4BBCF802F0E94631E15
:1022800011C0AA2009F4B9CF893349F49FEFE7EED2
:10229000F3E09150E040F040E1F700C00000802FF3
:1022A0000E94FC1D88EF8B0D843010F40E94030502
:1022B000CC20A9F08091C20480FD11C0F7011282E8
:1022C0008595859585950E941822C7010E94650C09
:1022D0008091C2048595859585950E94D62185E0DB
:1022E000F701DE01119601900D928A95E1F789813F
:1022F0009A810E947521EA81F0E008E0809FE00D5C
:10230000F11D112483E0EE0FFF1F8A95E1F789810B
:10231000E80FF11DEE0FFF1FEA50FE4F85919491DB
:102320009EC00E3C3CE5130709F494C088F1073DBC
:102330002CE51207C8F58091C204877009F48FC09C
:10234000F7018281882309F48AC082E02A960FB6B9
:10235000F894DEBF0FBECDBFDF91CF911F910F91DB
:10236000FF90EF90DF90CF90BF90AF909F908F90B5
:102370000C94FB2169E293CC083CFCE51F0709F4AF
:102380004EC008F051C040E157E067E077E05FC021
:102390000C3CECE51E0709F451C008F054C043EEB4
:1023A00056E067ED76E053C00E351D4521F2F1CCC5
:1023B0008091E80180FF1EC08E7F8093E8016091CC
:1023C000E8017091E9018091EA019091EB010E948E
:1023D000D7058091E70181608093E7018FEF90E757
:1023E000E2E081509040E040E1F700C000000E9430
:1023F0008005A1CF81608093E80161E086952CC0C3
:1024000046E957E06FE977E022C04FE957E066E917
:1024100077E01DC047E057E060E177E018C04FEE7D
:1024200056E06BEF76E013C04BEF56E06FEE76E0D0
:102430000EC047ED56E063EE76E009C049E157E093
:102440006AE277E004C04AE257E069E177E00E947F
:10245000610571CF61E081E00E943B076CCF2A9655
:102460000FB6F894DEBF0FBECDBFDF91CF911F91A5
:102470000F91FF90EF90DF90CF90BF90AF909F9023
:102480008F900895BC0184E00C94571FBC0183E039
:102490000C94571FCF93DF93CDB7DEB762970FB67B
:1024A000F894DEBF0FBECDBF84B7877F84BF0FB661
:1024B000F894A895809160008861809360001092E4
:1024C00060000FBE90E080E80FB6F8948093610042
:1024D000909361000FBE85B7806885BF85B780681F
:1024E00085BF8AE09FE190938701809386010E94D7
:1024F000921A0E94B11A8091E20084608093E200F7
:10250000789480914F048823A1F01091E9001F7006
:102510009091EC00892F817090FD80E8182B10922B
:10252000E9008091E80083FD0E9485171F701093D9
:10253000E90082E084BD93E095BD9AEF97BD80935A
:102540006E001092D1011092D2011092D30110921C
:10255000D4010E94CE088093050180910501882353
:1025600021F0109200018AE003C08AE0809300010C
:10257000809301010E94CE0881110E949E238091C8
:10258000050180910501811102C094E001C090E035
:102590009093E40184E0891B8093E30184E30E942B
:1025A000F10886EC0E94F10887E90E94F10884E9AD
:1025B0000E94F10804E311E0ACE3EA2EA1E0FA2E58
:1025C000D8018D918D010E94F108E016F106C1F746
:1025D000EBEDF1E083EE91E0A2EFB1E011921D92FC
:1025E0008E179F07D9F780E090E00E94D4268A3E9C
:1025F0009E4F11F00E94702082E090E00E94C6265B
:10260000809339040E945F209093DA018093D9016E
:1026100083E090E00E94C626682F70E080E090E0A2
:102620000E9439220E94CE08811102C00E94A42378
:102630001092200480E88093FF010E941C246DE02A
:1026400070E089E096E00E943017892B09F03FC0C6
:102650008091200463E070E081FD36C086E096E062
:102660000E943017892B99F56DE070E086EF95E0B8
:102670000E943017892B59F50E94BF1FDC01CB0146
:10268000805A9541AF4FBF4F809324049093250407
:10269000A0932604B093270480E092E0E0E2F2E009
:1026A000DF019C011D9221503040E1F78FEF9FEF39
:1026B000909323048093220481E080932B048093E1
:1026C00028041092210403C083E096E0C9CF8091D2
:1026D000ED01811139C080E090E00E94D4268A3E4D
:1026E0009E4F21F00E9470200E94A30788E090E096
:1026F0000E94CE266093E8017093E9018093EA017D
:102700009093EB018091E70183608093E7016E7FF6
:1027100071F40E94A30788E090E00E94CE266093A7
:10272000E8017093E9018093EA019093EB010E9424
:10273000CC058091E80180FF04C060E086950E948E
:102740003B0781E08093ED0180910501811106C076
:1027500085E38093070186E68093060120910701B7
:10276000E22FE295EF70F0E031A12F7081E090E070
:10277000AC01022E01C0440F0A94EAF7542F509581
:10278000352331A332A1432B42A340910601A42F4C
:10279000A295AF70B0E091963C9191974F70042E46
:1027A00001C0880F0A94EAF7982F90959323919689
:1027B0009C93919792969C919297892B92968C9349
:1027C000929780A190E002C0959587952A95E2F7AF
:1027D000817090962C9130E002C0359527954A95EE
:1027E000E2F720FD02C090E001C092E0892B8093C7
:1027F000FE019091050181E098279093FD01891BCE
:102800008093EE018FE091E09093F0018093EF01CF
:10281000E0E46E2E22242394312C80914F048530E5
:1028200009F044C000E112E180914F04853009F0C5
:1028300039C080914F04843019F11092F10188E180
:1028400090E00FB6F894A895809360000FBE609258
:10285000600083B7817F846083BF83B7816083BF5B
:102860007894889583B78E7F83BF0FB6F894A89528
:1028700080916000886180936000109260000FBEBC
:1028800080914E04882309F4CFCF0E94670BE2EFBA
:10289000F1E081918111C4C2AAEFB1E0AE17BF0788
:1028A000C1F7C2CF0E94DC1D0E9403050E94670B86
:1028B000C82E81110E94BF1FEAE3F4E0A2EFB1E04D
:1028C00000E010E0B02EDD9081918D2509F454C018
:1028D000E12CFF24F394982F9F2109F448C00E9413
:1028E000CE08882399F0EF82B886DF2081E009F4D2
:1028F00080E089870E9403208160782F9B878A87E8
:102900004F81588569858B850E943704F801E65C04
:10291000FB4F8081F826F082A091FE015A2F550FBF
:10292000550F20910701E22FE295EF70F0E080A1B2
:1029300090E02F7002C0959587952A95E2F78170F7
:10294000992740910601E42FE295EF70F0E020A175
:1029500030E04F7002C0359527954A95E2F7D901CE
:10296000A170BB2720FF1FC0A2E0B0E01CC0E39411
:10297000FF0C28E0E212AFCF0F5F1F4F08301105A8
:1029800009F0A0CF8FEF8C878D871E860E940320D1
:102990008160782F988B8F874C855D856E858889BF
:1029A0000E943704B9CFA82BB92BA52BA093FE0109
:1029B000E091FD01AF70B0E0A45CBE4F9C918091AE
:1029C000FC01890F843034F0F0E0E650FE4F908136
:1029D0009F5F07C08D3F4CF4F0E0E650FE4F9081C2
:1029E00091509083DD24D39401C0D12C082E000C8B
:1029F000990B64E070E00E9422278093FC01D110C3
:102A00000E94D50480912B04882309F415C180917C
:102A1000290490912A040E94B01FC29730F00E94AE
:102A2000032090932A04809329042091220430915A
:102A300023042115310509F4D8C0809121048111A6
:102A4000D4C0482E512C7101082E02C0EE0CFF1C80
:102A50000A94E2F7A9014E215F21452B11F48F5F03
:102A6000F0CF90912004920175E0220F331F7A95E8
:102A7000E1F790FD12C08295880F807680930A015D
:102A8000220F232F221F330B319520930D01815EDE
:102A900080930B0110920E0112C055E036952795D8
:102AA0005A95E1F7220F220F220F20930A0110926C
:102AB0000D01295F20930B0183E080930E0124E632
:102AC00030E047E050E068E071E088E70E94A92428
:102AD000892B09F08AC08091200480FD23C0C201A7
:102AE00045E0880F991F4A95E1F7AC01405E5D4FC4
:102AF00004E610E020E230E060E488E70E94D024A1
:102B0000892B09F072C00E940F05E094F094809127
:102B1000220490912304E822F922F0922304E09207
:102B2000220463C080E2E0E0F2E0DF011D928A95BA
:102B3000E9F735E0440C551C3A95E1F7E0E5F1E0A2
:102B4000FA8BE98B6CE471E0A989BA898D91BA8B13
:102B5000A98BFB019191BF01A201490F511D405E5C
:102B60005D4F90E080509E4FFC0127E0A22E9F0118
:102B7000281B390B822C01C0880C2A95EAF78A01A0
:102B8000912CD801BD908D01B8202A2D29192770CC
:102B9000722E022E000C330BBB2D01C0BB0F7A949A
:102BA000EAF77B2E3195219531092770332701C033
:102BB000B6942A95EAF77B28B0807B28708293949C
:102BC00028E09212DECFAA9431963FEFA312CFCF26
:102BD00089899A898455914009F0B6CF04E610E0BE
:102BE00020E230E040E052E087CF80912804882343
:102BF00019F10E94BF1F0091240410912504209117
:102C0000260430912704DC01CB01801B910BA20B21
:102C1000B30B8F3F9F4FAF4FBF4770F480912B0492
:102C2000882351F062E070E086E196E00E94301760
:102C3000892B11F410922804C11001C0D1100E94F8
:102C40000F0586E0E2E3F4E0DE01119601900D92BB
:102C50008A95E1F7E0903404F09035040091360451
:102C600010913704109234041092350410923604F7
:102C700010923704E11003C0FF2009F451C0809185
:102C80003004909131040E94B01F9C0190912F0458
:102C9000992309F4DBC02333310508F441C09F3F79
:102CA00019F09F5F90932F04EE2061F00E9453086B
:102CB0001E1414F09FEF01C091E0899F802D112414
:102CC00080933404FF2061F00E9453081F1414F015
:102CD0009FEF01C091E0899F802D112480933504DE
:102CE000309134043323E1F0209135042223C1F0E4
:102CF00045EB3403C0011124992319F09093340457
:102D000003C081E08093340435EB2303C001112418
:102D1000992319F09093350403C081E08093350422
:102D2000011103C0112309F451C080912D04909129
:102D30002E040E94B01F9C0190912C04992309F449
:102D40008AC02536310508F441C09F3F19F09F5FC6
:102D500090932C04002361F00E943108101614F0A7
:102D60009FEF01C091E0899F802D1124809336044C
:102D7000112361F00E943108111614F09FEF01C079
:102D800091E0899F802D112480933704309136047F
:102D90003323E1F0209137042223C1F045EB3403C3
:102DA000C0011124992319F09093360403C081E0E7
:102DB0008093360435EB2303C0011124992319F0C5
:102DC0009093370403C081E08093370480913404EA
:102DD00081110BC080913504811107C080913604A8
:102DE000811103C08091370481110E943D0BEB8259
:102DF000FC820D831E8386E0FE013196A2E3B4E0DF
:102E000001900D928A95E1F70E9403059091380494
:102E1000891709F402CD0E94030580933804FDCC84
:102E200009BD19BD09B400FEFDCF8091D8008F7D8A
:102E30008093D8008091E00082608093E0008091D0
:102E4000E00081FDFCCF0E94DC1DEECC2D32314034
:102E500008F027CF65CF2D32314008F078CFB6CFBC
:102E6000EF92FF920F931F93CF93DF93EC017B01BF
:102E700064E670E088E70E9422248C01EC0EFD1EBF
:102E8000CE15DF0561F017FD0AC0FE01849164E6EE
:102E900070E00E9479248C012196892B89F30E948D
:102EA000FD24C801DF91CF911F910F91FF90EF900A
:102EB0000895EF92FF920F931F93CF93DF937C01BE
:102EC0008B010E94B922811119C0E701011511057A
:102ED000A1F08091E80085FD0AC08091E8008E771E
:102EE0008093E8000E94B922882381F307C089916A
:102EF0008093F10001501109E9CF80E0DF91CF917B
:102F00001F910F91FF90EF9008951F93CF93DF9340
:102F1000CDB7DEB7AA970FB6F894DEBF0FBECDBF10
:102F2000E1E5F4E08091F100819324E0E935F207D6
:102F3000C9F780915204833009F460C030F48130C5
:102F400071F0823009F49AC0B1C08A3009F486C0A9
:102F50008B3009F46BC0893009F0A8C020C0809183
:102F60005104813A09F0A2C08091E800877F8093E4
:102F7000E8008091550490915604892B21F468E073
:102F800085E494E003C060E080E090E070E00E949F
:102F900040238091E8008B778093E80087C0809180
:102FA0005104813209F082C08091550490915604F9
:102FB000029708F07BC08091E800877F8093E8004B
:102FC0008091E80082FD05C080914F048111F8CF07
:102FD0006DC02091F3008091F20090E0922B029757
:102FE00029F48091F1008B7F813021F48091F100F0
:102FF000809344048091E8008B7754C08091510401
:10300000813A09F053C08091550490915604892B60
:1030100009F04CC08091E800877F8093E8008091A0
:10302000E80080FFFCCF8091190137C080915104E6
:103030008132E1F58091550490915604892BB1F5C8
:103040008091E800877F8093E8000E94EC228091C5
:103050005304809319010E94DC1D28C08091510403
:10306000813221F58091E800877F8093E8000E94FB
:10307000EC22809154048093430418C08091510441
:10308000813AA1F48091E800877F8093E8008091E5
:10309000E80080FFFCCF809143048093F100809191
:1030A000E8008E778093E8000E94EC228091E8008F
:1030B00083FFCCC18091510490915204492F50E07C
:1030C0004A30510508F0C2C1FA01EE59FF4F0C9485
:1030D0003627803821F0823809F0B8C108C08091C5
:1030E0004D0490914E04992389F082600FC0809125
:1030F00055048F70873008F0A9C18093E900809152
:10310000EB0085FB882780F91092E9009091E80098
:10311000977F9093E8008093F1001092F10065C1D1
:10312000282F2D7F09F092C1882319F0823061F099
:103130008DC180915304813009F088C1933009F02A
:1031400080E080934E042EC08091530481112AC0E8
:10315000809155048F702FEF280F263008F076C12C
:103160008093E9002091EB0020FF1CC0933021F4F4
:103170008091EB00806214C09091EB00906190937D
:10318000EB0021E030E0A90102C0440F551F8A95F1
:10319000E2F74093EA001092EA008091EB00886029
:1031A0008093EB001092E9008091E800877F20C1B6
:1031B00081114CC1109153041F778091E3008078F6
:1031C000812B8093E3008091E800877F8093E80063
:1031D0000E94EC228091E80080FFFCCF8091E30008
:1031E00080688093E300111102C082E001C083E097
:1031F00080934F042BC18058823008F027C1809102
:103200005304909154048C3D53E0950779F583E085
:103210008A838AE289834FB7F894DE01139620E00F
:103220003EE051E2E32FF0E050935700E49120FF9D
:1032300003C0E295EF703F5FEF708E2F90E0EA30B1
:1032400010F0C79601C0C0968D939D932F5F2431D7
:1032500049F74FBF8091E800877F8093E8006AE2DA
:1032600070E0CE0101960E944023AEC0409155040B
:1032700050915604292F332723303105A9F068F4E3
:103280002130310509F4F1C02230310509F0DEC0EA
:103290008BE390E0E3EDF6E044C02132310521F10B
:1032A0002232310571F1D2C0992781309105A1F008
:1032B00058F0029709F0CAC0E0E2F7E0E4918E2FDF
:1032C00090E0E0E2F7E02AC0E2E5F7E0E4918E2F3B
:1032D00090E0E2E5F7E022C0E0E4F7E0E4918E2F31
:1032E00090E0E0E4F7E01AC04115510509F4C2C0CE
:1032F0004130510509F0AAC089E090E0EEEFF6E018
:1033000010C04115510509F4BAC04130510509F00A
:103310009DC08BE790E0E8E1F6E003C0009709F478
:1033200095C02091E800277F2093E8002091570462
:10333000309158048217930708F49C0140E021154E
:10334000310589F180914F04882309F43DC085300F
:10335000D9F18091E80083FD37C08091E80082FDBB
:103360002FC08091E80080FFEACF4091F300809168
:10337000F20090E0942B2115310559F08830910529
:1033800040F444914093F100319621503109019667
:10339000F2CF41E0089709F040E08091E8008E7795
:1033A0008093E800CCCF4111CDCF0AC080914F046B
:1033B000882351F0853041F08091E80083FD04C0FE
:1033C0008091E80082FFF2CF8091E8008B778093B4
:1033D000E8003CC08038D1F58091E800877F809379
:1033E000E800809150048093F1008091E8008E778E
:1033F0008093E8000E94EC2229C0811127C08091AF
:103400005304909154049927029704F58091E800A1
:10341000877F8093E80010915304109350040E941A
:10342000EC22111106C08091E30087FD02C081E00B
:1034300001C084E080934F0442E061EC81E00E948F
:103440000B2342E261EC82E00E940B238091E800B2
:1034500083FF1AC08091E800877F8093E800809105
:10346000EB0080628093EB000FC082E190E0EEE021
:10347000F7E057CF89E090E0E5EEF6E052CF80E448
:1034800090E0E3E9F6E04DCFAA960FB6F894DEBFE0
:103490000FBECDBFDF91CF911F9108951F920F9264
:1034A0000FB60F9211242F933F934F935F936F9317
:1034B0007F938F939F93AF93BF93CF93DF93EF93BC
:1034C000FF93C091E900CF708091EC00D82FD170AC
:1034D00080FDD0E81092E9008091F000877F809312
:1034E000F00078940E9485171092E9008091F00016
:1034F00088608093F000CD2BCF70C093E900FF91DE
:10350000EF91DF91CF91BF91AF919F918F917F917B
:103510006F915F914F913F912F910F900FBE0F9040
:103520001F901895E8EDF0E080818E7F80831092E7
:10353000E2001092DA001092E100A0EEB0E08C916F
:1035400081608C9380818F77808319BCA7EDB0E078
:103550008C918E7F8C9380818F7E80831092420429
:103560000895CF92DF92EF92FF920F931F93CF9324
:10357000DF93C8EDD0E088818F7E8883E7EDF0E0AF
:1035800080818160808384E082BF81E080934204F7
:1035900088818E7F888302EE10E0F80110821092FD
:1035A000DA0081EEC82ED12CF601108288818F7747
:1035B000888388818068888388818F7D888319BC0F
:1035C00010924F041092500410924E0410924D0429
:1035D00090EEE92EF12CF70180818B7F808388812A
:1035E0008160888342E060E080E00E940B23F60166
:1035F00080818E7F8083F8018081816080838081DB
:1036000088608083F70180818E7F808388818061DC
:103610008883DF91CF911F910F91FF90EF90DF9002
:10362000CF9008951F920F920FB60F9211242F93EF
:103630003F934F935F936F937F938F939F93AF933A
:10364000BF93EF93FF938091E10082FF09C08091C7
:10365000E20082FF05C08091E1008B7F8093E10052
:103660008091DA0080FF2AC08091D80080FF26C0B8
:103670008091DA008E7F8093DA008091D90080FFFC
:1036800018C080E189BD82E189BD09B400FEFDCF8B
:1036900081E080934F048091420481110FC00E9409
:1036A000921A0E94B11A8091E20084608093E20035
:1036B00005C019BC10924F04109242048091E100A1
:1036C00080FF17C08091E20080FF13C08091E2006C
:1036D0008E7F8093E2008091E20080618093E2001F
:1036E0008091D80080628093D80019BC85E08093D7
:1036F0004F048091E10084FF2EC08091E20084FF9E
:103700002AC080E189BD82E189BD09B400FEFDCFF8
:103710008091D8008F7D8093D8008091E1008F7ECA
:103720008093E1008091E2008F7E8093E20080919F
:10373000E20081608093E20080915004882311F0C0
:1037400084E007C08091E30087FD02C081E001C0F2
:1037500083E080934F048091E10083FF27C0809134
:10376000E20083FF23C08091E100877F8093E10026
:1037700082E080934F04109250048091E1008E7F8C
:103780008093E1008091E2008E7F8093E20080913F
:10379000E20080618093E20042E060E080E00E940D
:1037A0000B238091F00088608093F000FF91EF91EF
:1037B000BF91AF919F918F917F916F915F914F9149
:1037C0003F912F910F900FBE0F901F9018950E9460
:1037D0006A21292F2F70E92FE295EF704E2F50E0CC
:1037E000FA013297EE30F105B8F4E459FF4F0C942A
:1037F0003627803F99F018F4883E70F40FC0843F5C
:1038000059F40CC0883E50F0813F31F407C0822F3C
:10381000869586958695089580E0089581E00895BF
:103820009F92AF92BF92CF92DF92EF92FF920F934F
:103830001F93CF93DF93CDB7DEB761970FB6F894A0
:10384000DEBF0FBECDBF8C0185E0F801DE011D9605
:1038500001900D928A95E1F7F80190818181E280D3
:103860003091620460916304409165045091660454
:103870004115510531F06F3F31F421E03F3F19F41C
:1038800003C021E001C020E0F22FF1709F2E20FD47
:1038900023C1F801C380D48022E6A22E24E0B22EF8
:1038A000F0906404F601E41BF50BFF2009F4CEC090
:1038B00020916704E83CF10508F099C0422F407F51
:1038C00009F051C0681311C039130FC0FE2CE1106C
:1038D0000CC02F70206120936704C5010E94650C05
:1038E00080916704F801858337C1CD2831F08F3F7F
:1038F00031F421E09F3F19F403C021E001C020E032
:1039000020FD03C021E02E2502C020E030E0F22F90
:10391000F170FF2E20FF1DC0209199044091680492
:1039200056E0241709F4F6C030E0529FF001539F8F
:10393000F00D1124E759FB4F6181861306C06081A9
:10394000961303C06281E61204C02F5F3F4F2770B9
:10395000E8CFFE2CEE2009F4FFC08091670481605F
:103960008093670450C0681307C0391305C0E11085
:1039700003C0F80125838DC09D878E878D859E8528
:103980000E94E71B882369F1EE2059F1209167041A
:10399000822F82958F7090E0029774F0809162047C
:1039A0009091630498878F831986DB86CA862C875B
:1039B000CE0107960E94650C86E0F801A2E6B4E00D
:1039C00001900D928A95E1F70E944D220DC0681773
:1039D000E1F09D878E878D859E850E94E71B811172
:1039E0001EC0C8010E94650CFF24F394B5C0422F8D
:1039F000407F69F782E694E00E94650C86E0F5015D
:103A000011928A95E9F7F12CA7C03913E2CFE110A2
:103A1000E0CFF8012583C8010E94650C57C0EE2055
:103A200001F320916704822F82958F7090E00297B6
:103A30001CF280916204909163049A8389831B82B3
:103A4000DD82CC822E83CE010196B4CFE83CF10515
:103A5000E8F5FE2CEE2029F2681327C0391325C0A3
:103A60002091670420FD18C0822F82958F70482F07
:103A700050E04115510581F0F80125834F30510583
:103A800041F08F5F982F9295907F822F8F70892BB6
:103A90008583C8010E94650C86E0F801A2E6B4E0C7
:103AA00001900D928A95E1F757C09D878E878D858D
:103AB0009E850E94E71B81117FCF80916704816002
:103AC00080936704C8010E94650C46C086E0F5013A
:103AD00011928A95E9F740C0EE2009F482CF9D87C4
:103AE0008E878D859E850E94E71BF82E882309F41A
:103AF00078CF86E0F801A2E6B4E001900D928A95B5
:103B0000E1F780916204909163040E946A210E940F
:103B10004D2222C09D878E878D859E850E946A21B9
:103B2000292F22952F70223028F49F7039F08111AF
:103B300005C00BC0243028F49F7049F4805E8830A3
:103B400020F0C8010E94650C9F2CF92C05C0F801DB
:103B50009581907F99F7F9CF8F2D61960FB6F894E4
:103B6000DEBF0FBECDBFDF91CF911F910F91FF90B0
:103B7000EF90DF90CF90BF90AF909F90089580E03E
:103B800090E00E94ED0480E090E00E94D704109243
:103B9000C4041092C3040E94E120E2E3F4E086E052
:103BA000DF011D928A95E9F710922F0410922C04E0
:103BB000109259040C943D0B1092C50486E0ECE57C
:103BC000F4E0DF011D928A95E9F70C94BF1D88236C
:103BD00041F080959091C50489238093C5040C948D
:103BE000E1200895882339F09091C504892B8093B2
:103BF000C5040C94E1200895882309F463C0823839
:103C000069F40E94030581FF5DC069E38AE594E0E1
:103C10000E9445200E94E12069E30EC0833891F4A0
:103C20000E94030580FF4EC063E58AE594E00E9490
:103C300045200E94E12063E58AE594E00E94382057
:103C40000C94E120843869F40E94030582FF3AC095
:103C500067E48AE594E00E9445200E94E12067E441
:103C6000EBCF9CEF980F913A10F4682FE5CF90E2DC
:103C7000980F983088F4877021E030E0A90102C0E5
:103C8000440F551F8A95E2F7CA0180959091C504AB
:103C900089238093C504D4CF9BE5980F933020F4FB
:103CA00080E090E00C94ED0498E5980F973120F4B3
:103CB00080E090E00C94D7048D3E20F00E94BA077B
:103CC0000C943D0B0895CF93882309F49EC0C82F10
:103CD0008238B1F40E94030581FD97C069E38AE54B
:103CE00094E00E9445200E94E1202FEF81EE94E0B5
:103CF000215080409040E1F700C0000069E317C008
:103D00008338E1F40E94030580FD7FC063E58AE506
:103D100094E00E9445200E94E1202FEF81EE94E084
:103D2000215080409040E1F700C0000063E58AE543
:103D300094E00E943820CF910C94E1208438B1F4B3
:103D40000E94030582FD61C067E48AE594E00E9459
:103D500045200E94E1202FEF81EE94E02150804029
:103D60009040E1F700C0000067E4E1CF8CEF8C0FDA
:103D7000813A80F4ECE5F4E082E694E02191C21708
:103D8000E1F18E179F07D1F76C2F8AE594E00E942E
:103D90004520D1CF80E28C0F883068F4C77081E075
:103DA00090E001C0880FCA95EAF79091C504892B6D
:103DB0008093C504C0CFEBE5EC0FE33040F4F0E0B6
:103DC000EC5AFE4F808190E0CF910C94ED04E8E531
:103DD000EC0FE73150F4F0E0EE0FFF1FE95AFE4F11
:103DE00080819181CF910C94D704CD3E70F08C2FBF
:103DF0000E947308CF910C943D0B6C2F8AE594E0E0
:103E00000E9438200E94E120BFCFCF910895809179
:103E10004404089580E0089522E02093E9002FEF04
:103E20003091E800215035FD06C035ED3A95F1F7A7
:103E300000002111F5CF2091E80025FF0BC040E0E4
:103E400050E066E070E00E9459178091E8008E779C
:103E50008093E8000895CF93DF9321E02093E90059
:103E60002FEF3091E800215035FD06C035ED3A9531
:103E7000F1F700002111F5CF2091E80025FF14C0D3
:103E8000EC0140E050E068E070E00E94591780913A
:103E9000E8008E778093E80088E0FE01A5E4B4E0B6
:103EA00001900D928A95E1F7DF91CF910895CF931C
:103EB000DF9300D01F92CDB7DEB790914F049430BE
:103EC00019F589837B836A8382E08093E9008FEF11
:103ED0009091E800815095FD06C095ED9A95F1F717
:103EE00000008111F5CF8091E80085FF0DC040E012
:103EF00050E063E070E0CE0101960E945917809176
:103F0000E8008E778093E8000F900F900F90DF917C
:103F1000CF91089578941F920F920FB60F921124AB
:103F20008F939F93AF93BF938091CB049091CC04D8
:103F3000A091CD04B091CE040196A11DB11D809336
:103F4000CB049093CC04A093CD04B093CE04BF9146
:103F5000AF919F918F910F900FBE0F901F9018956A
:103F60009C014FB7F8948091CB049091CC04A09120
:103F7000CD04B091CE044FBF821B930B08952FB791
:103F8000F8946091CB047091CC048091CD04909111
:103F9000CE042FBF08950F931F930E94CE0888234D
:103FA00021F01F910F910C94BF1F0E94BF1F009121
:103FB000D1011091D2012091D3013091D401600F31
:103FC000711F821F931F1F910F910895CF92DF924F
:103FD000EF92FF926B017C010E94CE0881110EC00E
:103FE0000E94BF1FC61AD70AE80AF90AC092D10177
:103FF000D092D201E092D301F092D401FF90EF90E1
:10400000DF90CF9008952FB7F8948091CB049091D2
:10401000CC04A091CD04B091CE042FBF08951F927F
:104020000F920FB60F9211248F939F93AF93BF936C
:104030008091F101811113C08091CB049091CC0447
:10404000A091CD04B091CE044196A11DB11D8093E5
:10405000CB049093CC04A093CD04B093CE04BF9135
:10406000AF919F918F910F900FBE0F901F90189559
:104070009C012A5F3F4FFC014281461301C012821E
:10408000019682179307B9F708959C01FC013296B7
:104090009FEF80E04191461789F09F3F19F441114D
:1040A00001C0982F8F5F8630A9F79F3F39F0F90143
:1040B000E90FF11D97FDFA95628308950895CF9356
:1040C00084E090E00E94C626C82F82E290E00E9421
:1040D000C6262C2F30E0A901582BCA01CF91089594
:1040E0006AEE7EEF80E090E00E94F82660E082E0D9
:1040F00090E00E94DA2660E083E090E00E94DA26F9
:104100001092C7041092C8041092C9041092CA04F5
:1041100060E084E090E00E94DA2660E082E290E0D5
:104120000E94DA2660E085E090E00E94DA2660E0F6
:1041300086E090E00E94DA266FEF87E090E00E9430
:10414000DA2640E050E0BA0188E090E00E94EC26D8
:1041500060E08DE090E00E94DA2640E050E0BA0195
:1041600088E190E00E94EC2660E087E190E00E9408
:10417000DA2640E050E0BA018CE190E00E94EC26A3
:1041800060E070E080E290E00E94F82640E050E0BD
:10419000BA0188E190E00E94EC2640E050E0BA01CC
:1041A0008FE090E00E94EC2640E050E0BA0183E10D
:1041B00090E00C94EC268091C60481111092C60404
:1041C00008959091C5048091C404892B2091C30463
:1041D000982F922B90935A048091C604882389F0DB
:1041E000892B80935A04ECE5F4E097E080E091504D
:1041F00029F021912223D9F38F5FF9CF81110E94F9
:10420000DB20E091EF01F091F001309731F0028076
:10421000F381E02D8AE594E009940895CF93C0914D
:10422000DA01C2FB992790F9981781F080FBC2F957
:10423000C093DA016091D90184E090E00E94DA260F
:104240006C2F82E290E0CF910C94DA26CF91089502
:10425000BF92CF92DF92EF92FF920F931F93CF9373
:10426000DF938C01C090D501D090D601E090D701AA
:10427000F090D8018091C7049091C804A091C9041E
:10428000B091CA04C82AD92AEA2AFB2ACFE1D0E091
:10429000D701C6010C2E04C0B695A79597958795B2
:1042A0000A94D2F780FD04C0219790F7B12C07C083
:1042B000BC2EB8018C2F0E9408090197A9F38B2D01
:1042C000DF91CF911F910F91FF90EF90DF90CF90F2
:1042D000BF900895CF93DF93EC010E942821BE0187
:1042E0000E940809DF91CF91089528E0929F800DE8
:1042F0001124682F669566956695982F977085E0CE
:10430000689FB001112440E050E080E0FB01E40F21
:10431000F51FE656FB4F208130E0092E02C036958E
:1043200027950A94E2F721703327042E01C0220F4B
:104330000A94EAF7822B4F5F5F4F4530510531F702
:10434000089528E0929F800D1124E82FE695E695C8
:10435000E695877051E001C0550F8A95EAF785E030
:10436000E89FF0011124E656FB4F20E030E070E0BA
:104370004081CB01022E02C0969587950A94E2F700
:104380008170819584278523842781932F5F3F4FF8
:104390002530310569F708956093D5017093D601F2
:1043A0008093D7019093D8010C94BF1D0F931F9356
:1043B00041E050E060E070E004C0440F551F661F0C
:1043C000771F8A95D2F740955095609570958091AA
:1043D000D5019091D601A091D701B091D8018A0161
:1043E0009B01082319232A233B23C901B8011F91EC
:1043F0000F910C94CC212091C2048095822380934C
:10440000C204982F977041F430E0482F082E000C1A
:10441000550B2417350721F49091DA0192FF07C05C
:104420008595859585950E94D6211092C2040895A0
:104430000F931F9341E050E060E070E004C0440F30
:10444000551F661F771F8A95D2F78091D5019091ED
:10445000D601A091D701B091D8018A019B01082B08
:10446000192B2A2B3B2BC901B8011F910F910C94DA
:10447000CC216093C7047093C8048093C9049093BF
:10448000CA040C94BF1D8091990490916804891707
:1044900019F08F5F8770FBCF08950F931F93CF9311
:1044A000DF938091670482958F7009F05DC08091E1
:1044B0006404882309F458C0809199041091680419
:1044C0006091620470916304C0916504D0916604A8
:1044D00091E06F3F09F090E0292F06E0811709F481
:1044E00043C0209721F07F3F21F030E003C031E04E
:1044F00001C0322F90E030FD34C0089FF001099FC9
:10450000F00D1124DF01A759BB4F11963C91119773
:10451000371327C03C91361324C012963C91129752
:1045200031111FC013964D915C9114974C1B5D0B7C
:10453000483C5105B0F4809167048F70806180938E
:104540006704E259FB4F80818F708061808382E62F
:1045500094E00E94650CDF91CF911F910F910C9414
:10456000432201968770BACFDF91CF911F910F91AF
:1045700008952091E4003091E50095E64091EC002B
:10458000842F817040FF23C08091E80080FD1DC012
:1045900080914F04882399F0853099F08091EB0049
:1045A00085FD11C04091E4005091E50024173507C6
:1045B00029F3915011F09A01E1CF84E0089582E04F
:1045C000089583E0089581E0089580E00895409182
:1045D000E80042FFDDCF08958091510487FF11C0AC
:1045E0008091E80082FD05C080914F048111F8CFD1
:1045F00011C08091E8008B770BC080914F04882315
:1046000049F08091E80080FFF8CF8091E8008E7734
:104610008093E8000895982F973068F59093E9000B
:10462000981739F07091EC002091ED005091F00056
:1046300003C0242F762F50E021FD02C09F5FECCFF6
:104640003091EB003E7F3093EB003091ED003D7FE9
:104650003093ED003091EB0031603093EB007093BC
:10466000EC002093ED005093F0002091EE0027FD28
:10467000E5CF80E008958F708093E90081E0089590
:1046800020915704309158042617370748F06115D8
:10469000710539F42091E8002E772093E80001C0DD
:1046A000B901FC0120E06115710579F180914F0499
:1046B0008823F1F18530F1F18091E80083FD3CC061
:1046C0008091E80082FD2EC08091E80080FFEBCF52
:1046D0002091F3008091F20090E0922B611571051A
:1046E00051F08830910538F421912093F100615008
:1046F00071090196F3CF21E0089709F020E080913D
:10470000E8008E778093E800CECF2111CFCF0AC08A
:1047100080914F04882361F0853061F08091E8003A
:1047200083FD0AC08091E80082FFF2CF80E0089507
:1047300082E0089583E0089581E0089562E070E0EA
:104740008AE191E00C94612562E070E08AE191E0F9
:104750000C946A250E947D05882361F08AED94E01F
:104760000E94670581E090E00E944326892B11F4A6
:104770000C947A0508958091D904883039F460E06A
:104780008AED94E00E945E071092D9040895CF93B9
:10479000DF93D62FC72F0E94AA2380E090E00E94CB
:1047A0004326892B11F5ED2FFC2F80E090E0DC01F2
:1047B000AC52BB4F2C912193019684309105B9F7EF
:1047C00088ED94E00E9435050E94CB1FDC01CB01EF
:1047D0000296A11DB11D8093D0049093D104A093A3
:1047E000D204B093D30481E001C080E0DF91CF9187
:1047F0000895CF93DF93D62FC72F0E94BB236091DC
:10480000D0047091D1048091D2049091D3040E947D
:10481000E61FED2FFC2F80E090E02191DC01AC52EF
:10482000BB4F2C93019684309105B9F788ED94E045
:10483000DF91CF910C9458051092B9008CE08093D1
:10484000B8000895EF92FF920F931F93CF93DF93D9
:10485000182FEB011092BC0084EA8093BC000E94E8
:1048600003207C018091BC0087FD0EC0CF3F8FEFFD
:10487000D807C1F30E9403208E199F098C179D074A
:1048800088F38EEF9FEF2EC08091B900887F88302B
:1048900041F08091B900887F803119F08FEF9FEF50
:1048A00021C01093BB0084E88093BC000E940320C9
:1048B0008C018091BC0087FD0CC0CF3F8FEFD807E3
:1048C000C1F30E940320801B910B8C179D0788F376
:1048D000D8CF8091B900887F883111F08034F1F60B
:1048E00080E090E0DF91CF911F910F91FF90EF90CA
:1048F00008950F931F93CF93DF93EB018093BB0039
:1049000084E88093BC000E9403208C018091BC004D
:1049100087FD0EC0CF3F8FEFD807C1F30E94032061
:10492000801B910B8C179D0788F38EEF9FEF0CC0B7
:104930002091B900287F81E090E0283211F480E0D6
:1049400090E0919581959109DF91CF911F910F9101
:104950000895CF92DF92EF92FF920F931F93CF9320
:10496000DF936B018A017901B9010E942224E601DB
:104970000C0D1D1DC017D10761F424E92093BC0064
:10498000DF91CF911F910F91FF90EF90DF90CF902B
:10499000089597FDF2CFB70189910E947924EACF5B
:1049A000CF92DF92EF92FF920F931F93CF93DF93FB
:1049B000C62F6A017901B8010E94222497FD11C017
:1049C000B8018C2F0E947924E601EC0CFD1CCE1559
:1049D000DF0539F097FD05C0B80189910E9479245F
:1049E000F6CF24E92093BC00DF91CF911F910F9166
:1049F000FF90EF90DF90CF90089584E98093BC0002
:104A000008958EE14A9B02C08150E1F74A9BFECF98
:104A100008955A9880E28A95F1F75A9A0895FC0110
:104A20002AE02A95F1F790E020E080E031E02617B7
:104A300079F040E14A95F1F7880F4A9B02C0816006
:104A4000932700C0000040E14A95F1F72F5FEFCFB8
:104A500020E12A95F1F729B100C0000030E13A9534
:104A6000F1F722FB222720F992272081920F9083D1
:104A70000895EF92FF920F931F93CF93DF931F92AE
:104A8000CDB7DEB719828C017C01E60EF11C0E1544
:104A90001F0559F00E94012568E0CE0101960E9491
:104AA0000F25F80181938F01F2CF81E09981911157
:104AB00080E00F90DF91CF911F910F91FF90EF90C9
:104AC00008959093E4048093E3046093E204529A7F
:104AD0005A9A08959093E4048093E3046093E20467
:104AE00052985A9AEA9AE9E6F0E080818F7C8083B6
:104AF0000895615091E001C0990F6A95EAF720E0AE
:104B000031E0992361F0492F482319F05A9A23275D
:104B100001C05A9840E24A95F1F79695F2CF2223C8
:104B200011F05A9A01C05A9880E28A95F1F75A9882
:104B30000895FF920F931F93CF93DF93EC018C01A5
:104B4000060F111DC017D10741F0F9900E940925E9
:104B500068E08F2D0E947925F5CFDF91CF911F91CD
:104B60000F91FF9008951F920F920FB60F9211248C
:104B70000F931F932F933F934F935F936F937F9365
:104B80008F939F93AF93BF93EF93FF93CF93DF9355
:104B90001F92CDB7DEB719820E94012567E0CE01D2
:104BA00001960E940F25382F369536953695932F0E
:104BB00096959570232F2570920F292F2370969527
:104BC00096958770920F891348C08981811145C0DD
:104BD0008091E204831708F440C080E18A95F1F7E0
:104BE0005A9A529AA2E0AA95F1F700C00091E30404
:104BF0001091E404B8E03B9F000D111D11245A9858
:104C0000F8016581662321F0868197810E949925AC
:104C10000E940925F0E1FA95F1F75A9852985A9AAC
:104C200080E18A95F1F7D80112966C91129766236C
:104C300069F013968D919C9114970E943925D801A3
:104C4000ED91FC91811105C082E004C0D801ED9185
:104C5000FC9188E080830E9401250F90DF91CF9125
:104C6000FF91EF91BF91AF919F918F917F916F9144
:104C70005F914F913F912F911F910F910F900FBE18
:104C80000F901F9018950F931F93CF93DF93209150
:104C9000E20430E0281739070CF471C09C0193E05E
:104CA000220F331F9A95E1F7C091E304D091E404F9
:104CB000C20FD31FF894529A5A9845E04A95F1F7DB
:104CC0000000982F969595708570890F982F937096
:104CD00086958695890F8901082B0E94092584E015
:104CE0008A95F1F700C067E0802F0E94792540E1A6
:104CF0004A95F1F752985A9A4A9902C000C0FCCFDF
:104D000087E090E04A9B0EC0019751F4529A5A9A5C
:104D1000E881F98181E08083789481E090E031C07E
:104D200000C0F0CF6D81662381F08E819F810E944B
:104D3000392581110AC0529A5A9AE881F98182E094
:104D40008083789482E090E01CC00E94012580E27C
:104D50008A95F1F75A98529A40E14A95F1F76A819B
:104D6000662321F08B819C810E9499250E94092550
:104D7000E881F9811082789480E090E002C084E0BC
:104D800090E0DF91CF911F910F910895F999FECF97
:104D900092BD81BDF89A992780B50895A6E1B0E04B
:104DA00044E050E00C940027A8E1B0E042E050E07D
:104DB0000C940027262FF999FECF92BD81BDF89A59
:104DC000019700B4021639F01FBA20BD0FB6F8944F
:104DD000FA9AF99A0FBE08950396272F0E94DB26B0
:104DE0000E94DA26252F0E94DB26242F0C94DB2636
:104DF0000196272F0E94DB260C94DA26DC01CB01DA
:104E0000FC01F999FECF06C0F2BDE1BDF89A3196DA
:104E100000B40D9241505040B8F70895AA1BBB1B37
:104E200051E107C0AA1FBB1FA617B70710F0A61BAA
:104E3000B70B881F991F5A95A9F780959095BC01CB
:104E4000CD01089597FB072E16F4009407D077FD47
:104E500009D00E940E2707FC05D03EF4909581955D
:104E60009F4F0895709561957F4F0895EE0FFF1F36
:0C4E70000590F491E02D0994F894FFCF18
:104E7C0000140014140135660021007F2200030782
:104E8C001F2B1F0C1F4612421201CF0404D0040525
:104E9C00D404D90408DA04000000000134C6979445
:104EAC000000000036323331F7F6F5F400FF010054
:104EBC00010000FFFF0000010001FF0000081018B6
:104ECC0018100800818283E200E900EA00B500B600
:104EDC0000B700CD008301CC008A0192019401211E
:104EEC0002230224022502260227022A02B300B45E
:064EFC00006F00700000D1
:00000001FF
